{
  "contractName": "FBToken",
  "abi": [
    {
      "inputs": [],
      "stateMutability": "nonpayable",
      "type": "constructor"
    },
    {
      "anonymous": false,
      "inputs": [
        {
          "indexed": true,
          "internalType": "address",
          "name": "owner",
          "type": "address"
        },
        {
          "indexed": true,
          "internalType": "address",
          "name": "approved",
          "type": "address"
        },
        {
          "indexed": true,
          "internalType": "uint256",
          "name": "tokenId",
          "type": "uint256"
        }
      ],
      "name": "Approval",
      "type": "event"
    },
    {
      "anonymous": false,
      "inputs": [
        {
          "indexed": true,
          "internalType": "address",
          "name": "owner",
          "type": "address"
        },
        {
          "indexed": true,
          "internalType": "address",
          "name": "operator",
          "type": "address"
        },
        {
          "indexed": false,
          "internalType": "bool",
          "name": "approved",
          "type": "bool"
        }
      ],
      "name": "ApprovalForAll",
      "type": "event"
    },
    {
      "anonymous": false,
      "inputs": [
        {
          "indexed": true,
          "internalType": "address",
          "name": "previousOwner",
          "type": "address"
        },
        {
          "indexed": true,
          "internalType": "address",
          "name": "newOwner",
          "type": "address"
        }
      ],
      "name": "OwnershipTransferred",
      "type": "event"
    },
    {
      "anonymous": false,
      "inputs": [
        {
          "indexed": true,
          "internalType": "address",
          "name": "from",
          "type": "address"
        },
        {
          "indexed": true,
          "internalType": "address",
          "name": "to",
          "type": "address"
        },
        {
          "indexed": true,
          "internalType": "uint256",
          "name": "tokenId",
          "type": "uint256"
        }
      ],
      "name": "Transfer",
      "type": "event"
    },
    {
      "inputs": [
        {
          "internalType": "address",
          "name": "to",
          "type": "address"
        },
        {
          "internalType": "uint256",
          "name": "tokenId",
          "type": "uint256"
        }
      ],
      "name": "approve",
      "outputs": [],
      "stateMutability": "nonpayable",
      "type": "function"
    },
    {
      "inputs": [
        {
          "internalType": "address",
          "name": "owner",
          "type": "address"
        }
      ],
      "name": "balanceOf",
      "outputs": [
        {
          "internalType": "uint256",
          "name": "",
          "type": "uint256"
        }
      ],
      "stateMutability": "view",
      "type": "function",
      "constant": true
    },
    {
      "inputs": [
        {
          "internalType": "uint256",
          "name": "tokenId",
          "type": "uint256"
        }
      ],
      "name": "getApproved",
      "outputs": [
        {
          "internalType": "address",
          "name": "",
          "type": "address"
        }
      ],
      "stateMutability": "view",
      "type": "function",
      "constant": true
    },
    {
      "inputs": [
        {
          "internalType": "address",
          "name": "owner",
          "type": "address"
        },
        {
          "internalType": "address",
          "name": "operator",
          "type": "address"
        }
      ],
      "name": "isApprovedForAll",
      "outputs": [
        {
          "internalType": "bool",
          "name": "",
          "type": "bool"
        }
      ],
      "stateMutability": "view",
      "type": "function",
      "constant": true
    },
    {
      "inputs": [],
      "name": "name",
      "outputs": [
        {
          "internalType": "string",
          "name": "",
          "type": "string"
        }
      ],
      "stateMutability": "view",
      "type": "function",
      "constant": true
    },
    {
      "inputs": [],
      "name": "owner",
      "outputs": [
        {
          "internalType": "address",
          "name": "",
          "type": "address"
        }
      ],
      "stateMutability": "view",
      "type": "function",
      "constant": true
    },
    {
      "inputs": [
        {
          "internalType": "uint256",
          "name": "tokenId",
          "type": "uint256"
        }
      ],
      "name": "ownerOf",
      "outputs": [
        {
          "internalType": "address",
          "name": "",
          "type": "address"
        }
      ],
      "stateMutability": "view",
      "type": "function",
      "constant": true
    },
    {
      "inputs": [],
      "name": "renounceOwnership",
      "outputs": [],
      "stateMutability": "nonpayable",
      "type": "function"
    },
    {
      "inputs": [
        {
          "internalType": "address",
          "name": "from",
          "type": "address"
        },
        {
          "internalType": "address",
          "name": "to",
          "type": "address"
        },
        {
          "internalType": "uint256",
          "name": "tokenId",
          "type": "uint256"
        }
      ],
      "name": "safeTransferFrom",
      "outputs": [],
      "stateMutability": "nonpayable",
      "type": "function"
    },
    {
      "inputs": [
        {
          "internalType": "address",
          "name": "from",
          "type": "address"
        },
        {
          "internalType": "address",
          "name": "to",
          "type": "address"
        },
        {
          "internalType": "uint256",
          "name": "tokenId",
          "type": "uint256"
        },
        {
          "internalType": "bytes",
          "name": "data",
          "type": "bytes"
        }
      ],
      "name": "safeTransferFrom",
      "outputs": [],
      "stateMutability": "nonpayable",
      "type": "function"
    },
    {
      "inputs": [
        {
          "internalType": "address",
          "name": "operator",
          "type": "address"
        },
        {
          "internalType": "bool",
          "name": "approved",
          "type": "bool"
        }
      ],
      "name": "setApprovalForAll",
      "outputs": [],
      "stateMutability": "nonpayable",
      "type": "function"
    },
    {
      "inputs": [
        {
          "internalType": "bytes4",
          "name": "interfaceId",
          "type": "bytes4"
        }
      ],
      "name": "supportsInterface",
      "outputs": [
        {
          "internalType": "bool",
          "name": "",
          "type": "bool"
        }
      ],
      "stateMutability": "view",
      "type": "function",
      "constant": true
    },
    {
      "inputs": [],
      "name": "symbol",
      "outputs": [
        {
          "internalType": "string",
          "name": "",
          "type": "string"
        }
      ],
      "stateMutability": "view",
      "type": "function",
      "constant": true
    },
    {
      "inputs": [
        {
          "internalType": "address",
          "name": "from",
          "type": "address"
        },
        {
          "internalType": "address",
          "name": "to",
          "type": "address"
        },
        {
          "internalType": "uint256",
          "name": "tokenId",
          "type": "uint256"
        }
      ],
      "name": "transferFrom",
      "outputs": [],
      "stateMutability": "nonpayable",
      "type": "function"
    },
    {
      "inputs": [
        {
          "internalType": "address",
          "name": "newOwner",
          "type": "address"
        }
      ],
      "name": "transferOwnership",
      "outputs": [],
      "stateMutability": "nonpayable",
      "type": "function"
    },
    {
      "inputs": [
        {
          "internalType": "address",
          "name": "",
          "type": "address"
        },
        {
          "internalType": "uint256",
          "name": "",
          "type": "uint256"
        }
      ],
      "name": "userOwnedTokens",
      "outputs": [
        {
          "internalType": "uint256",
          "name": "",
          "type": "uint256"
        }
      ],
      "stateMutability": "view",
      "type": "function",
      "constant": true
    },
    {
      "inputs": [
        {
          "internalType": "address",
          "name": "user_addr",
          "type": "address"
        }
      ],
      "name": "rewardToken",
      "outputs": [],
      "stateMutability": "nonpayable",
      "type": "function"
    },
    {
      "inputs": [
        {
          "internalType": "address",
          "name": "user_addr",
          "type": "address"
        }
      ],
      "name": "fetch_balance",
      "outputs": [
        {
          "internalType": "uint256",
          "name": "",
          "type": "uint256"
        }
      ],
      "stateMutability": "view",
      "type": "function",
      "constant": true
    },
    {
      "inputs": [
        {
          "internalType": "uint256",
          "name": "no_of_tokens",
          "type": "uint256"
        }
      ],
      "name": "deduct_tokens",
      "outputs": [],
      "stateMutability": "nonpayable",
      "type": "function"
    },
    {
      "inputs": [
        {
          "internalType": "uint256",
          "name": "tokenId",
          "type": "uint256"
        }
      ],
      "name": "tokenURI",
      "outputs": [
        {
          "internalType": "string",
          "name": "",
          "type": "string"
        }
      ],
      "stateMutability": "view",
      "type": "function",
      "constant": true
    }
  ],
  "bytecode": "0x60806040523480156200001157600080fd5b506040518060400160405280600781526020017f4642546f6b656e000000000000000000000000000000000000000000000000008152506040518060400160405280600381526020017f425254000000000000000000000000000000000000000000000000000000000081525081600090816200008f919062000480565b508060019081620000a1919062000480565b505050620000c4620000b86200012260201b60201c565b6200012a60201b60201c565b620000db6008620001f060201b62000e311760201c565b33600960006101000a81548173ffffffffffffffffffffffffffffffffffffffff021916908373ffffffffffffffffffffffffffffffffffffffff16021790555062000567565b600033905090565b6000600760009054906101000a900473ffffffffffffffffffffffffffffffffffffffff16905081600760006101000a81548173ffffffffffffffffffffffffffffffffffffffff021916908373ffffffffffffffffffffffffffffffffffffffff1602179055508173ffffffffffffffffffffffffffffffffffffffff168173ffffffffffffffffffffffffffffffffffffffff167f8be0079c531659141344cd1fd0a4f28419497f9722a3daafe3b4186f6b6457e060405160405180910390a35050565b6001816000016000828254019250508190555050565b600081519050919050565b7f4e487b7100000000000000000000000000000000000000000000000000000000600052604160045260246000fd5b7f4e487b7100000000000000000000000000000000000000000000000000000000600052602260045260246000fd5b600060028204905060018216806200028857607f821691505b6020821081036200029e576200029d62000240565b5b50919050565b60008190508160005260206000209050919050565b60006020601f8301049050919050565b600082821b905092915050565b600060088302620003087fffffffffffffffffffffffffffffffffffffffffffffffffffffffffffffffff82620002c9565b620003148683620002c9565b95508019841693508086168417925050509392505050565b6000819050919050565b6000819050919050565b6000620003616200035b62000355846200032c565b62000336565b6200032c565b9050919050565b6000819050919050565b6200037d8362000340565b620003956200038c8262000368565b848454620002d6565b825550505050565b600090565b620003ac6200039d565b620003b981848462000372565b505050565b5b81811015620003e157620003d5600082620003a2565b600181019050620003bf565b5050565b601f8211156200043057620003fa81620002a4565b6200040584620002b9565b8101602085101562000415578190505b6200042d6200042485620002b9565b830182620003be565b50505b505050565b600082821c905092915050565b6000620004556000198460080262000435565b1980831691505092915050565b600062000470838362000442565b9150826002028217905092915050565b6200048b8262000206565b67ffffffffffffffff811115620004a757620004a662000211565b5b620004b382546200026f565b620004c0828285620003e5565b600060209050601f831160018114620004f85760008415620004e3578287015190505b620004ef858262000462565b8655506200055f565b601f1984166200050886620002a4565b60005b8281101562000532578489015182556001820191506020850194506020810190506200050b565b868310156200055257848901516200054e601f89168262000442565b8355505b6001600288020188555050505b505050505050565b61342180620005776000396000f3fe608060405234801561001057600080fd5b506004361061012c5760003560e01c8063727e455d116100ad578063c87b56dd11610071578063c87b56dd14610341578063cdef91d014610371578063e985e9c51461038d578063f2fde38b146103bd578063fc0cfc4f146103d95761012c565b8063727e455d1461029d5780638da5cb5b146102cd57806395d89b41146102eb578063a22cb46514610309578063b88d4fde146103255761012c565b806323b872dd116100f457806323b872dd146101fb57806342842e0e146102175780636352211e1461023357806370a0823114610263578063715018a6146102935761012c565b806301ffc9a71461013157806306fdde0314610161578063081812fc1461017f578063095ea7b3146101af57806314b924e2146101cb575b600080fd5b61014b60048036038101906101469190612201565b6103f5565b6040516101589190612249565b60405180910390f35b6101696104d7565b60405161017691906122f4565b60405180910390f35b6101996004803603810190610194919061234c565b610569565b6040516101a691906123ba565b60405180910390f35b6101c960048036038101906101c49190612401565b6105af565b005b6101e560048036038101906101e09190612401565b6106c6565b6040516101f29190612450565b60405180910390f35b6102156004803603810190610210919061246b565b6106f7565b005b610231600480360381019061022c919061246b565b610757565b005b61024d6004803603810190610248919061234c565b610777565b60405161025a91906123ba565b60405180910390f35b61027d600480360381019061027891906124be565b6107fd565b60405161028a9190612450565b60405180910390f35b61029b6108b4565b005b6102b760048036038101906102b291906124be565b6108c8565b6040516102c49190612450565b60405180910390f35b6102d56108da565b6040516102e291906123ba565b60405180910390f35b6102f3610904565b60405161030091906122f4565b60405180910390f35b610323600480360381019061031e9190612517565b610996565b005b61033f600480360381019061033a919061268c565b6109ac565b005b61035b6004803603810190610356919061234c565b610a0e565b60405161036891906122f4565b60405180910390f35b61038b600480360381019061038691906124be565b610a20565b005b6103a760048036038101906103a2919061270f565b610a62565b6040516103b49190612249565b60405180910390f35b6103d760048036038101906103d291906124be565b610af6565b005b6103f360048036038101906103ee919061234c565b610b79565b005b60007f80ac58cd000000000000000000000000000000000000000000000000000000007bffffffffffffffffffffffffffffffffffffffffffffffffffffffff1916827bffffffffffffffffffffffffffffffffffffffffffffffffffffffff191614806104c057507f5b5e139f000000000000000000000000000000000000000000000000000000007bffffffffffffffffffffffffffffffffffffffffffffffffffffffff1916827bffffffffffffffffffffffffffffffffffffffffffffffffffffffff1916145b806104d057506104cf82610e47565b5b9050919050565b6060600080546104e69061277e565b80601f01602080910402602001604051908101604052809291908181526020018280546105129061277e565b801561055f5780601f106105345761010080835404028352916020019161055f565b820191906000526020600020905b81548152906001019060200180831161054257829003601f168201915b5050505050905090565b600061057482610eb1565b6004600083815260200190815260200160002060009054906101000a900473ffffffffffffffffffffffffffffffffffffffff169050919050565b60006105ba82610777565b90508073ffffffffffffffffffffffffffffffffffffffff168373ffffffffffffffffffffffffffffffffffffffff160361062a576040517f08c379a000000000000000000000000000000000000000000000000000000000815260040161062190612821565b60405180910390fd5b8073ffffffffffffffffffffffffffffffffffffffff16610649610efc565b73ffffffffffffffffffffffffffffffffffffffff161480610678575061067781610672610efc565b610a62565b5b6106b7576040517f08c379a00000000000000000000000000000000000000000000000000000000081526004016106ae906128b3565b60405180910390fd5b6106c18383610f04565b505050565b600a60205281600052604060002081815481106106e257600080fd5b90600052602060002001600091509150505481565b610708610702610efc565b82610fbd565b610747576040517f08c379a000000000000000000000000000000000000000000000000000000000815260040161073e90612945565b60405180910390fd5b610752838383611052565b505050565b610772838383604051806020016040528060008152506109ac565b505050565b6000806107838361134b565b9050600073ffffffffffffffffffffffffffffffffffffffff168173ffffffffffffffffffffffffffffffffffffffff16036107f4576040517f08c379a00000000000000000000000000000000000000000000000000000000081526004016107eb906129b1565b60405180910390fd5b80915050919050565b60008073ffffffffffffffffffffffffffffffffffffffff168273ffffffffffffffffffffffffffffffffffffffff160361086d576040517f08c379a000000000000000000000000000000000000000000000000000000000815260040161086490612a43565b60405180910390fd5b600360008373ffffffffffffffffffffffffffffffffffffffff1673ffffffffffffffffffffffffffffffffffffffff168152602001908152602001600020549050919050565b6108bc611388565b6108c66000611406565b565b60006108d3826107fd565b9050919050565b6000600760009054906101000a900473ffffffffffffffffffffffffffffffffffffffff16905090565b6060600180546109139061277e565b80601f016020809104026020016040519081016040528092919081815260200182805461093f9061277e565b801561098c5780601f106109615761010080835404028352916020019161098c565b820191906000526020600020905b81548152906001019060200180831161096f57829003601f168201915b5050505050905090565b6109a86109a1610efc565b83836114cc565b5050565b6109bd6109b7610efc565b83610fbd565b6109fc576040517f08c379a00000000000000000000000000000000000000000000000000000000081526004016109f390612945565b60405180910390fd5b610a0884848484611638565b50505050565b6060610a1982611694565b9050919050565b610a5f816040518060400160405280600181526020017f31000000000000000000000000000000000000000000000000000000000000008152506117a6565b50565b6000600560008473ffffffffffffffffffffffffffffffffffffffff1673ffffffffffffffffffffffffffffffffffffffff16815260200190815260200160002060008373ffffffffffffffffffffffffffffffffffffffff1673ffffffffffffffffffffffffffffffffffffffff16815260200190815260200160002060009054906101000a900460ff16905092915050565b610afe611388565b600073ffffffffffffffffffffffffffffffffffffffff168173ffffffffffffffffffffffffffffffffffffffff1603610b6d576040517f08c379a0000000000000000000000000000000000000000000000000000000008152600401610b6490612ad5565b60405180910390fd5b610b7681611406565b50565b60003390506000600a60008373ffffffffffffffffffffffffffffffffffffffff1673ffffffffffffffffffffffffffffffffffffffff168152602001908152602001600020805480602002602001604051908101604052809291908181526020018280548015610c0957602002820191906000526020600020905b815481526020019060010190808311610bf5575b5050505050905060008151905083811015610c2357600080fd5b60005b84811015610d16576000838281518110610c4357610c42612af5565b5b60200260200101519050610c7a85600960009054906101000a900473ffffffffffffffffffffffffffffffffffffffff1683610757565b600a6000600960009054906101000a900473ffffffffffffffffffffffffffffffffffffffff1673ffffffffffffffffffffffffffffffffffffffff1673ffffffffffffffffffffffffffffffffffffffff168152602001908152602001600020819080600181540180825580915050600190039060005260206000200160009091909190915055508080610d0e90612b53565b915050610c26565b5060008482610d259190612b9b565b67ffffffffffffffff811115610d3e57610d3d612561565b5b604051908082528060200260200182016040528015610d6c5781602001602082028036833780820191505090505b50905060008590505b82811015610dd557838181518110610d9057610d8f612af5565b5b6020026020010151828783610da59190612b9b565b81518110610db657610db5612af5565b5b6020026020010181815250508080610dcd90612b53565b915050610d75565b5080600a60008673ffffffffffffffffffffffffffffffffffffffff1673ffffffffffffffffffffffffffffffffffffffff1681526020019081526020016000209080519060200190610e2992919061212b565b505050505050565b6001816000016000828254019250508190555050565b60007f01ffc9a7000000000000000000000000000000000000000000000000000000007bffffffffffffffffffffffffffffffffffffffffffffffffffffffff1916827bffffffffffffffffffffffffffffffffffffffffffffffffffffffff1916149050919050565b610eba8161183d565b610ef9576040517f08c379a0000000000000000000000000000000000000000000000000000000008152600401610ef0906129b1565b60405180910390fd5b50565b600033905090565b816004600083815260200190815260200160002060006101000a81548173ffffffffffffffffffffffffffffffffffffffff021916908373ffffffffffffffffffffffffffffffffffffffff160217905550808273ffffffffffffffffffffffffffffffffffffffff16610f7783610777565b73ffffffffffffffffffffffffffffffffffffffff167f8c5be1e5ebec7d5bd14f71427d1e84f3dd0314c0f7b2291e5b200ac8c7c3b92560405160405180910390a45050565b600080610fc983610777565b90508073ffffffffffffffffffffffffffffffffffffffff168473ffffffffffffffffffffffffffffffffffffffff16148061100b575061100a8185610a62565b5b8061104957508373ffffffffffffffffffffffffffffffffffffffff1661103184610569565b73ffffffffffffffffffffffffffffffffffffffff16145b91505092915050565b8273ffffffffffffffffffffffffffffffffffffffff1661107282610777565b73ffffffffffffffffffffffffffffffffffffffff16146110c8576040517f08c379a00000000000000000000000000000000000000000000000000000000081526004016110bf90612c41565b60405180910390fd5b600073ffffffffffffffffffffffffffffffffffffffff168273ffffffffffffffffffffffffffffffffffffffff1603611137576040517f08c379a000000000000000000000000000000000000000000000000000000000815260040161112e90612cd3565b60405180910390fd5b611144838383600161187e565b8273ffffffffffffffffffffffffffffffffffffffff1661116482610777565b73ffffffffffffffffffffffffffffffffffffffff16146111ba576040517f08c379a00000000000000000000000000000000000000000000000000000000081526004016111b190612c41565b60405180910390fd5b6004600082815260200190815260200160002060006101000a81549073ffffffffffffffffffffffffffffffffffffffff02191690556001600360008573ffffffffffffffffffffffffffffffffffffffff1673ffffffffffffffffffffffffffffffffffffffff168152602001908152602001600020600082825403925050819055506001600360008473ffffffffffffffffffffffffffffffffffffffff1673ffffffffffffffffffffffffffffffffffffffff16815260200190815260200160002060008282540192505081905550816002600083815260200190815260200160002060006101000a81548173ffffffffffffffffffffffffffffffffffffffff021916908373ffffffffffffffffffffffffffffffffffffffff160217905550808273ffffffffffffffffffffffffffffffffffffffff168473ffffffffffffffffffffffffffffffffffffffff167fddf252ad1be2c89b69c2b068fc378daa952ba7f163c4a11628f55a4df523b3ef60405160405180910390a461134683838360016119a4565b505050565b60006002600083815260200190815260200160002060009054906101000a900473ffffffffffffffffffffffffffffffffffffffff169050919050565b611390610efc565b73ffffffffffffffffffffffffffffffffffffffff166113ae6108da565b73ffffffffffffffffffffffffffffffffffffffff1614611404576040517f08c379a00000000000000000000000000000000000000000000000000000000081526004016113fb90612d3f565b60405180910390fd5b565b6000600760009054906101000a900473ffffffffffffffffffffffffffffffffffffffff16905081600760006101000a81548173ffffffffffffffffffffffffffffffffffffffff021916908373ffffffffffffffffffffffffffffffffffffffff1602179055508173ffffffffffffffffffffffffffffffffffffffff168173ffffffffffffffffffffffffffffffffffffffff167f8be0079c531659141344cd1fd0a4f28419497f9722a3daafe3b4186f6b6457e060405160405180910390a35050565b8173ffffffffffffffffffffffffffffffffffffffff168373ffffffffffffffffffffffffffffffffffffffff160361153a576040517f08c379a000000000000000000000000000000000000000000000000000000000815260040161153190612dab565b60405180910390fd5b80600560008573ffffffffffffffffffffffffffffffffffffffff1673ffffffffffffffffffffffffffffffffffffffff16815260200190815260200160002060008473ffffffffffffffffffffffffffffffffffffffff1673ffffffffffffffffffffffffffffffffffffffff16815260200190815260200160002060006101000a81548160ff0219169083151502179055508173ffffffffffffffffffffffffffffffffffffffff168373ffffffffffffffffffffffffffffffffffffffff167f17307eab39ab6107e8899845ad3d59bd9653f200f220920489ca2b5937696c318360405161162b9190612249565b60405180910390a3505050565b611643848484611052565b61164f848484846119aa565b61168e576040517f08c379a000000000000000000000000000000000000000000000000000000000815260040161168590612e3d565b60405180910390fd5b50505050565b606061169f82610eb1565b60006006600084815260200190815260200160002080546116bf9061277e565b80601f01602080910402602001604051908101604052809291908181526020018280546116eb9061277e565b80156117385780601f1061170d57610100808354040283529160200191611738565b820191906000526020600020905b81548152906001019060200180831161171b57829003601f168201915b505050505090506000611749611b31565b9050600081510361175e5781925050506117a1565b60008251111561179357808260405160200161177b929190612e99565b604051602081830303815290604052925050506117a1565b61179c84611b6e565b925050505b919050565b60006117b26008611bd6565b90506117be6008610e31565b6117c88382611be4565b6117d28183611c02565b600a60008473ffffffffffffffffffffffffffffffffffffffff1673ffffffffffffffffffffffffffffffffffffffff168152602001908152602001600020819080600181540180825580915050600190039060005260206000200160009091909190915055505050565b60008073ffffffffffffffffffffffffffffffffffffffff1661185f8361134b565b73ffffffffffffffffffffffffffffffffffffffff1614159050919050565b600181111561199e57600073ffffffffffffffffffffffffffffffffffffffff168473ffffffffffffffffffffffffffffffffffffffff16146119125780600360008673ffffffffffffffffffffffffffffffffffffffff1673ffffffffffffffffffffffffffffffffffffffff168152602001908152602001600020600082825461190a9190612b9b565b925050819055505b600073ffffffffffffffffffffffffffffffffffffffff168373ffffffffffffffffffffffffffffffffffffffff161461199d5780600360008573ffffffffffffffffffffffffffffffffffffffff1673ffffffffffffffffffffffffffffffffffffffff16815260200190815260200160002060008282546119959190612ebd565b925050819055505b5b50505050565b50505050565b60006119cb8473ffffffffffffffffffffffffffffffffffffffff16611c6f565b15611b24578373ffffffffffffffffffffffffffffffffffffffff1663150b7a026119f4610efc565b8786866040518563ffffffff1660e01b8152600401611a169493929190612f46565b6020604051808303816000875af1925050508015611a5257506040513d601f19601f82011682018060405250810190611a4f9190612fa7565b60015b611ad4573d8060008114611a82576040519150601f19603f3d011682016040523d82523d6000602084013e611a87565b606091505b506000815103611acc576040517f08c379a0000000000000000000000000000000000000000000000000000000008152600401611ac390612e3d565b60405180910390fd5b805181602001fd5b63150b7a0260e01b7bffffffffffffffffffffffffffffffffffffffffffffffffffffffff1916817bffffffffffffffffffffffffffffffffffffffffffffffffffffffff191614915050611b29565b600190505b949350505050565b60606040518060400160405280601881526020017f68747470733a2f2f6578616d706c652e636f6d2f6e66742f0000000000000000815250905090565b6060611b7982610eb1565b6000611b83611b31565b90506000815111611ba35760405180602001604052806000815250611bce565b80611bad84611c92565b604051602001611bbe929190612e99565b6040516020818303038152906040525b915050919050565b600081600001549050919050565b611bfe828260405180602001604052806000815250611d60565b5050565b611c0b8261183d565b611c4a576040517f08c379a0000000000000000000000000000000000000000000000000000000008152600401611c4190613046565b60405180910390fd5b80600660008481526020019081526020016000209081611c6a9190613212565b505050565b6000808273ffffffffffffffffffffffffffffffffffffffff163b119050919050565b606060006001611ca184611dbb565b01905060008167ffffffffffffffff811115611cc057611cbf612561565b5b6040519080825280601f01601f191660200182016040528015611cf25781602001600182028036833780820191505090505b509050600082602001820190505b600115611d55578080600190039150507f3031323334353637383961626364656600000000000000000000000000000000600a86061a8153600a8581611d4957611d486132e4565b5b04945060008503611d00575b819350505050919050565b611d6a8383611f0e565b611d7760008484846119aa565b611db6576040517f08c379a0000000000000000000000000000000000000000000000000000000008152600401611dad90612e3d565b60405180910390fd5b505050565b600080600090507a184f03e93ff9f4daa797ed6e38ed64bf6a1f0100000000000000008310611e19577a184f03e93ff9f4daa797ed6e38ed64bf6a1f0100000000000000008381611e0f57611e0e6132e4565b5b0492506040810190505b6d04ee2d6d415b85acef81000000008310611e56576d04ee2d6d415b85acef81000000008381611e4c57611e4b6132e4565b5b0492506020810190505b662386f26fc100008310611e8557662386f26fc100008381611e7b57611e7a6132e4565b5b0492506010810190505b6305f5e1008310611eae576305f5e1008381611ea457611ea36132e4565b5b0492506008810190505b6127108310611ed3576127108381611ec957611ec86132e4565b5b0492506004810190505b60648310611ef65760648381611eec57611eeb6132e4565b5b0492506002810190505b600a8310611f05576001810190505b80915050919050565b600073ffffffffffffffffffffffffffffffffffffffff168273ffffffffffffffffffffffffffffffffffffffff1603611f7d576040517f08c379a0000000000000000000000000000000000000000000000000000000008152600401611f749061335f565b60405180910390fd5b611f868161183d565b15611fc6576040517f08c379a0000000000000000000000000000000000000000000000000000000008152600401611fbd906133cb565b60405180910390fd5b611fd460008383600161187e565b611fdd8161183d565b1561201d576040517f08c379a0000000000000000000000000000000000000000000000000000000008152600401612014906133cb565b60405180910390fd5b6001600360008473ffffffffffffffffffffffffffffffffffffffff1673ffffffffffffffffffffffffffffffffffffffff16815260200190815260200160002060008282540192505081905550816002600083815260200190815260200160002060006101000a81548173ffffffffffffffffffffffffffffffffffffffff021916908373ffffffffffffffffffffffffffffffffffffffff160217905550808273ffffffffffffffffffffffffffffffffffffffff16600073ffffffffffffffffffffffffffffffffffffffff167fddf252ad1be2c89b69c2b068fc378daa952ba7f163c4a11628f55a4df523b3ef60405160405180910390a46121276000838360016119a4565b5050565b828054828255906000526020600020908101928215612167579160200282015b8281111561216657825182559160200191906001019061214b565b5b5090506121749190612178565b5090565b5b80821115612191576000816000905550600101612179565b5090565b6000604051905090565b600080fd5b600080fd5b60007fffffffff0000000000000000000000000000000000000000000000000000000082169050919050565b6121de816121a9565b81146121e957600080fd5b50565b6000813590506121fb816121d5565b92915050565b6000602082840312156122175761221661219f565b5b6000612225848285016121ec565b91505092915050565b60008115159050919050565b6122438161222e565b82525050565b600060208201905061225e600083018461223a565b92915050565b600081519050919050565b600082825260208201905092915050565b60005b8381101561229e578082015181840152602081019050612283565b60008484015250505050565b6000601f19601f8301169050919050565b60006122c682612264565b6122d0818561226f565b93506122e0818560208601612280565b6122e9816122aa565b840191505092915050565b6000602082019050818103600083015261230e81846122bb565b905092915050565b6000819050919050565b61232981612316565b811461233457600080fd5b50565b60008135905061234681612320565b92915050565b6000602082840312156123625761236161219f565b5b600061237084828501612337565b91505092915050565b600073ffffffffffffffffffffffffffffffffffffffff82169050919050565b60006123a482612379565b9050919050565b6123b481612399565b82525050565b60006020820190506123cf60008301846123ab565b92915050565b6123de81612399565b81146123e957600080fd5b50565b6000813590506123fb816123d5565b92915050565b600080604083850312156124185761241761219f565b5b6000612426858286016123ec565b925050602061243785828601612337565b9150509250929050565b61244a81612316565b82525050565b60006020820190506124656000830184612441565b92915050565b6000806000606084860312156124845761248361219f565b5b6000612492868287016123ec565b93505060206124a3868287016123ec565b92505060406124b486828701612337565b9150509250925092565b6000602082840312156124d4576124d361219f565b5b60006124e2848285016123ec565b91505092915050565b6124f48161222e565b81146124ff57600080fd5b50565b600081359050612511816124eb565b92915050565b6000806040838503121561252e5761252d61219f565b5b600061253c858286016123ec565b925050602061254d85828601612502565b9150509250929050565b600080fd5b600080fd5b7f4e487b7100000000000000000000000000000000000000000000000000000000600052604160045260246000fd5b612599826122aa565b810181811067ffffffffffffffff821117156125b8576125b7612561565b5b80604052505050565b60006125cb612195565b90506125d78282612590565b919050565b600067ffffffffffffffff8211156125f7576125f6612561565b5b612600826122aa565b9050602081019050919050565b82818337600083830152505050565b600061262f61262a846125dc565b6125c1565b90508281526020810184848401111561264b5761264a61255c565b5b61265684828561260d565b509392505050565b600082601f83011261267357612672612557565b5b813561268384826020860161261c565b91505092915050565b600080600080608085870312156126a6576126a561219f565b5b60006126b4878288016123ec565b94505060206126c5878288016123ec565b93505060406126d687828801612337565b925050606085013567ffffffffffffffff8111156126f7576126f66121a4565b5b6127038782880161265e565b91505092959194509250565b600080604083850312156127265761272561219f565b5b6000612734858286016123ec565b9250506020612745858286016123ec565b9150509250929050565b7f4e487b7100000000000000000000000000000000000000000000000000000000600052602260045260246000fd5b6000600282049050600182168061279657607f821691505b6020821081036127a9576127a861274f565b5b50919050565b7f4552433732313a20617070726f76616c20746f2063757272656e74206f776e6560008201527f7200000000000000000000000000000000000000000000000000000000000000602082015250565b600061280b60218361226f565b9150612816826127af565b604082019050919050565b6000602082019050818103600083015261283a816127fe565b9050919050565b7f4552433732313a20617070726f76652063616c6c6572206973206e6f7420746f60008201527f6b656e206f776e6572206f7220617070726f76656420666f7220616c6c000000602082015250565b600061289d603d8361226f565b91506128a882612841565b604082019050919050565b600060208201905081810360008301526128cc81612890565b9050919050565b7f4552433732313a2063616c6c6572206973206e6f7420746f6b656e206f776e6560008201527f72206f7220617070726f76656400000000000000000000000000000000000000602082015250565b600061292f602d8361226f565b915061293a826128d3565b604082019050919050565b6000602082019050818103600083015261295e81612922565b9050919050565b7f4552433732313a20696e76616c696420746f6b656e2049440000000000000000600082015250565b600061299b60188361226f565b91506129a682612965565b602082019050919050565b600060208201905081810360008301526129ca8161298e565b9050919050565b7f4552433732313a2061646472657373207a65726f206973206e6f74206120766160008201527f6c6964206f776e65720000000000000000000000000000000000000000000000602082015250565b6000612a2d60298361226f565b9150612a38826129d1565b604082019050919050565b60006020820190508181036000830152612a5c81612a20565b9050919050565b7f4f776e61626c653a206e6577206f776e657220697320746865207a65726f206160008201527f6464726573730000000000000000000000000000000000000000000000000000602082015250565b6000612abf60268361226f565b9150612aca82612a63565b604082019050919050565b60006020820190508181036000830152612aee81612ab2565b9050919050565b7f4e487b7100000000000000000000000000000000000000000000000000000000600052603260045260246000fd5b7f4e487b7100000000000000000000000000000000000000000000000000000000600052601160045260246000fd5b6000612b5e82612316565b91507fffffffffffffffffffffffffffffffffffffffffffffffffffffffffffffffff8203612b9057612b8f612b24565b5b600182019050919050565b6000612ba682612316565b9150612bb183612316565b9250828203905081811115612bc957612bc8612b24565b5b92915050565b7f4552433732313a207472616e736665722066726f6d20696e636f72726563742060008201527f6f776e6572000000000000000000000000000000000000000000000000000000602082015250565b6000612c2b60258361226f565b9150612c3682612bcf565b604082019050919050565b60006020820190508181036000830152612c5a81612c1e565b9050919050565b7f4552433732313a207472616e7366657220746f20746865207a65726f2061646460008201527f7265737300000000000000000000000000000000000000000000000000000000602082015250565b6000612cbd60248361226f565b9150612cc882612c61565b604082019050919050565b60006020820190508181036000830152612cec81612cb0565b9050919050565b7f4f776e61626c653a2063616c6c6572206973206e6f7420746865206f776e6572600082015250565b6000612d2960208361226f565b9150612d3482612cf3565b602082019050919050565b60006020820190508181036000830152612d5881612d1c565b9050919050565b7f4552433732313a20617070726f766520746f2063616c6c657200000000000000600082015250565b6000612d9560198361226f565b9150612da082612d5f565b602082019050919050565b60006020820190508181036000830152612dc481612d88565b9050919050565b7f4552433732313a207472616e7366657220746f206e6f6e20455243373231526560008201527f63656976657220696d706c656d656e7465720000000000000000000000000000602082015250565b6000612e2760328361226f565b9150612e3282612dcb565b604082019050919050565b60006020820190508181036000830152612e5681612e1a565b9050919050565b600081905092915050565b6000612e7382612264565b612e7d8185612e5d565b9350612e8d818560208601612280565b80840191505092915050565b6000612ea58285612e68565b9150612eb18284612e68565b91508190509392505050565b6000612ec882612316565b9150612ed383612316565b9250828201905080821115612eeb57612eea612b24565b5b92915050565b600081519050919050565b600082825260208201905092915050565b6000612f1882612ef1565b612f228185612efc565b9350612f32818560208601612280565b612f3b816122aa565b840191505092915050565b6000608082019050612f5b60008301876123ab565b612f6860208301866123ab565b612f756040830185612441565b8181036060830152612f878184612f0d565b905095945050505050565b600081519050612fa1816121d5565b92915050565b600060208284031215612fbd57612fbc61219f565b5b6000612fcb84828501612f92565b91505092915050565b7f45524337323155524953746f726167653a2055524920736574206f66206e6f6e60008201527f6578697374656e7420746f6b656e000000000000000000000000000000000000602082015250565b6000613030602e8361226f565b915061303b82612fd4565b604082019050919050565b6000602082019050818103600083015261305f81613023565b9050919050565b60008190508160005260206000209050919050565b60006020601f8301049050919050565b600082821b905092915050565b6000600883026130c87fffffffffffffffffffffffffffffffffffffffffffffffffffffffffffffffff8261308b565b6130d2868361308b565b95508019841693508086168417925050509392505050565b6000819050919050565b600061310f61310a61310584612316565b6130ea565b612316565b9050919050565b6000819050919050565b613129836130f4565b61313d61313582613116565b848454613098565b825550505050565b600090565b613152613145565b61315d818484613120565b505050565b5b818110156131815761317660008261314a565b600181019050613163565b5050565b601f8211156131c65761319781613066565b6131a08461307b565b810160208510156131af578190505b6131c36131bb8561307b565b830182613162565b50505b505050565b600082821c905092915050565b60006131e9600019846008026131cb565b1980831691505092915050565b600061320283836131d8565b9150826002028217905092915050565b61321b82612264565b67ffffffffffffffff81111561323457613233612561565b5b61323e825461277e565b613249828285613185565b600060209050601f83116001811461327c576000841561326a578287015190505b61327485826131f6565b8655506132dc565b601f19841661328a86613066565b60005b828110156132b25784890151825560018201915060208501945060208101905061328d565b868310156132cf57848901516132cb601f8916826131d8565b8355505b6001600288020188555050505b505050505050565b7f4e487b7100000000000000000000000000000000000000000000000000000000600052601260045260246000fd5b7f4552433732313a206d696e7420746f20746865207a65726f2061646472657373600082015250565b600061334960208361226f565b915061335482613313565b602082019050919050565b600060208201905081810360008301526133788161333c565b9050919050565b7f4552433732313a20746f6b656e20616c7265616479206d696e74656400000000600082015250565b60006133b5601c8361226f565b91506133c08261337f565b602082019050919050565b600060208201905081810360008301526133e4816133a8565b905091905056fea2646970667358221220da1ad03eb9975ba6397fc9814ed375a5341f006bbb1cc923ea20ee48621d844164736f6c63430008110033",
  "immutableReferences": {},
  "source": "// SPDX-License-Identifier: GPL-3.0\npragma solidity >=0.7.0 <0.9.0;\nimport \"../node_modules/@openzeppelin/contracts/token/ERC721/ERC721.sol\";\nimport \"../node_modules/@openzeppelin/contracts/token/ERC721/extensions/ERC721URIStorage.sol\";\nimport \"../node_modules/@openzeppelin/contracts/access/Ownable.sol\";\nimport \"../node_modules/@openzeppelin/contracts/utils/Counters.sol\";\n\ninterface InterfaceFBToken{\n  function rewardToken(address user_addr) external;\n  function fetch_balance(address user_addr) external view returns(uint);\n  // function deduct_tokens(uint no_of_tokens) external;\n}\n\ncontract FBToken is ERC721, ERC721URIStorage, Ownable {\n    using Counters for Counters.Counter;\n\n    Counters.Counter private _tokenIdCounter;\n\n    address chairperson;\n    mapping(address => uint256[]) public userOwnedTokens;\n\n    constructor() ERC721(\"FBToken\", \"BRT\") {\n      _tokenIdCounter.increment(); // making it to start from 1\n      chairperson = msg.sender;\n    }\n    \n    function rewardToken(address user_addr) external{\n      safeMint(user_addr, \"1\");\n    } \n\n    function fetch_balance(address user_addr) external view returns(uint) {\n      return balanceOf(user_addr);\n    }\n\n    function deduct_tokens(uint no_of_tokens) external{\n      address user_addr = msg.sender;\n      uint256[] memory original_token_ids = userOwnedTokens[user_addr];\n      uint original_tokens_arr_size = original_token_ids.length;\n      \n      require(original_tokens_arr_size >= no_of_tokens);\n\n      for(uint i = 0; i < no_of_tokens; i++){\n        uint token_id = original_token_ids[i];\n        safeTransferFrom(user_addr, chairperson, token_id);\n        userOwnedTokens[chairperson].push(token_id);\n      }\n\n      uint256[] memory new_token_ids = new uint256[](original_tokens_arr_size - no_of_tokens);\n      for(uint i = no_of_tokens; i < original_tokens_arr_size; i++){\n        new_token_ids[i - no_of_tokens] = original_token_ids[i];\n      }\n      userOwnedTokens[user_addr] = new_token_ids;\n    }\n\n    function _baseURI() internal pure override returns (string memory) {\n        return \"https://example.com/nft/\";\n    }\n\n    function safeMint(address to, string memory uri) internal{\n        uint256 tokenId = _tokenIdCounter.current();\n        _tokenIdCounter.increment();\n        _safeMint(to, tokenId);\n        _setTokenURI(tokenId, uri);\n\n        userOwnedTokens[to].push(tokenId);\n    }\n\n    // The following functions are overrides required by Solidity.\n\n    function _burn(uint256 tokenId) internal override(ERC721, ERC721URIStorage) {\n        super._burn(tokenId);\n    }\n\n    function tokenURI(uint256 tokenId) public  view override(ERC721, ERC721URIStorage) returns (string memory) {\n        return super.tokenURI(tokenId);\n    }\n}",
  "sourcePath": "/Users/vamsi/Documents/UB/BlockChain/phase_2_submission/foodbank/contracts/fb_token.sol",
  "compiler": {
    "name": "solc",
    "version": "0.8.17+commit.8df45f5f.Emscripten.clang"
  },
  "schemaVersion": "3.4.10",
  "updatedAt": "2022-12-07T23:11:12.708Z",
  "networkType": "ethereum",
  "devdoc": {
    "kind": "dev",
    "methods": {
      "approve(address,uint256)": {
        "details": "See {IERC721-approve}."
      },
      "balanceOf(address)": {
        "details": "See {IERC721-balanceOf}."
      },
      "getApproved(uint256)": {
        "details": "See {IERC721-getApproved}."
      },
      "isApprovedForAll(address,address)": {
        "details": "See {IERC721-isApprovedForAll}."
      },
      "name()": {
        "details": "See {IERC721Metadata-name}."
      },
      "owner()": {
        "details": "Returns the address of the current owner."
      },
      "ownerOf(uint256)": {
        "details": "See {IERC721-ownerOf}."
      },
      "renounceOwnership()": {
        "details": "Leaves the contract without owner. It will not be possible to call `onlyOwner` functions anymore. Can only be called by the current owner. NOTE: Renouncing ownership will leave the contract without an owner, thereby removing any functionality that is only available to the owner."
      },
      "safeTransferFrom(address,address,uint256)": {
        "details": "See {IERC721-safeTransferFrom}."
      },
      "safeTransferFrom(address,address,uint256,bytes)": {
        "details": "See {IERC721-safeTransferFrom}."
      },
      "setApprovalForAll(address,bool)": {
        "details": "See {IERC721-setApprovalForAll}."
      },
      "supportsInterface(bytes4)": {
        "details": "See {IERC165-supportsInterface}."
      },
      "symbol()": {
        "details": "See {IERC721Metadata-symbol}."
      },
      "transferFrom(address,address,uint256)": {
        "details": "See {IERC721-transferFrom}."
      },
      "transferOwnership(address)": {
        "details": "Transfers ownership of the contract to a new account (`newOwner`). Can only be called by the current owner."
      }
    },
    "version": 1
  },
  "userdoc": {
    "kind": "user",
    "methods": {},
    "version": 1
  }
}