{
  "contractName": "PlanC",
  "abi": [
    {
      "inputs": [],
      "stateMutability": "nonpayable",
      "type": "constructor"
    },
    {
      "inputs": [
        {
          "internalType": "uint256",
          "name": "plan_id",
          "type": "uint256"
        }
      ],
      "name": "getPlanDetails",
      "outputs": [
        {
          "internalType": "string[]",
          "name": "",
          "type": "string[]"
        },
        {
          "internalType": "uint256[]",
          "name": "",
          "type": "uint256[]"
        }
      ],
      "stateMutability": "view",
      "type": "function",
      "constant": true
    },
    {
      "inputs": [
        {
          "internalType": "string[]",
          "name": "item_names",
          "type": "string[]"
        },
        {
          "internalType": "uint256[]",
          "name": "item_amounts",
          "type": "uint256[]"
        }
      ],
      "name": "createPlanAndPlanItems",
      "outputs": [
        {
          "internalType": "uint256",
          "name": "",
          "type": "uint256"
        }
      ],
      "stateMutability": "nonpayable",
      "type": "function"
    },
    {
      "inputs": [
        {
          "internalType": "uint256",
          "name": "plan_id",
          "type": "uint256"
        },
        {
          "internalType": "uint256",
          "name": "update_by",
          "type": "uint256"
        },
        {
          "internalType": "uint256",
          "name": "update_tokens_by",
          "type": "uint256"
        }
      ],
      "name": "updatePlanCollectedAmount",
      "outputs": [],
      "stateMutability": "nonpayable",
      "type": "function"
    },
    {
      "inputs": [
        {
          "internalType": "uint256[]",
          "name": "plan_ids",
          "type": "uint256[]"
        }
      ],
      "name": "fetchMostVotedPlan",
      "outputs": [
        {
          "internalType": "uint256",
          "name": "",
          "type": "uint256"
        }
      ],
      "stateMutability": "view",
      "type": "function",
      "constant": true
    }
  ],
  "bytecode": "0x608060405234801561001057600080fd5b506000808190555060006002819055506112d48061002f6000396000f3fe608060405234801561001057600080fd5b506004361061004c5760003560e01c8063314487a814610051578063ad5abed81461006d578063d275eda81461009e578063d3ce79e2146100ce575b600080fd5b61006b60048036038101906100669190610814565b6100fe565b005b61008760048036038101906100829190610867565b61017b565b604051610095929190610aa4565b60405180910390f35b6100b860048036038101906100b39190610db9565b61041d565b6040516100c59190610e40565b60405180910390f35b6100e860048036038101906100e39190610e5b565b610617565b6040516100f59190610e40565b60405180910390f35b8160036000858152602001908152602001600020600201546101209190610ed3565b600360008581526020019081526020016000206002018190555080600360008581526020019081526020016000206003015461015c9190610ed3565b6003600085815260200190815260200160002060030181905550505050565b60608060006003600085815260200190815260200160002060405180608001604052908160008201548152602001600182018054806020026020016040519081016040528092919081815260200182805480156101f757602002820191906000526020600020905b8154815260200190600101908083116101e3575b5050505050815260200160028201548152602001600382015481525050905060008160200151905060008151905060008167ffffffffffffffff81111561024157610240610ae0565b5b60405190808252806020026020018201604052801561027457816020015b606081526020019060019003908161025f5790505b50905060008267ffffffffffffffff81111561029357610292610ae0565b5b6040519080825280602002602001820160405280156102c15781602001602082028036833780820191505090505b50905060005b8381101561040c576000600160008784815181106102e8576102e7610f07565b5b602002602001015181526020019081526020016000206040518060600160405290816000820154815260200160018201805461032390610f65565b80601f016020809104026020016040519081016040528092919081815260200182805461034f90610f65565b801561039c5780601f106103715761010080835404028352916020019161039c565b820191906000526020600020905b81548152906001019060200180831161037f57829003601f168201915b50505050508152602001600282015481525050905080602001518483815181106103c9576103c8610f07565b5b602002602001018190525080604001518383815181106103ec576103eb610f07565b5b60200260200101818152505050808061040490610f96565b9150506102c7565b508181965096505050505050915091565b6000808351905060008167ffffffffffffffff8111156104405761043f610ae0565b5b60405190808252806020026020018201604052801561046e5781602001602082028036833780820191505090505b50905060005b8281101561056a576000604051806060016040528060016000546104989190610ed3565b81526020018884815181106104b0576104af610f07565b5b602002602001015181526020018784815181106104d0576104cf610f07565b5b6020026020010151815250905060016000546104ec9190610ed3565b600081905550806001600080548152602001908152602001600020600082015181600001556020820151816001019081610526919061118a565b506040820151816002015590505060005483838151811061054a57610549610f07565b5b60200260200101818152505050808061056290610f96565b915050610474565b506000604051806080016040528060016002546105879190610ed3565b8152602001838152602001600081526020016000815250905060016002546105af9190610ed3565b600281905550806003600060025481526020019081526020016000206000820151816000015560208201518160010190805190602001906105f1929190610760565b506040820151816002015560608201518160030155905050600254935050505092915050565b600080600090506000805b845181101561075557826003600087848151811061064357610642610f07565b5b60200260200101518152602001908152602001600020600301546002610669919061125c565b600360008885815181106106805761067f610f07565b5b60200260200101518152602001908152602001600020600201546106a49190610ed3565b111561074257600360008683815181106106c1576106c0610f07565b5b602002602001015181526020019081526020016000206003015460026106e7919061125c565b600360008784815181106106fe576106fd610f07565b5b60200260200101518152602001908152602001600020600201546107229190610ed3565b925084818151811061073757610736610f07565b5b602002602001015191505b808061074d90610f96565b915050610622565b508092505050919050565b82805482825590600052602060002090810192821561079c579160200282015b8281111561079b578251825591602001919060010190610780565b5b5090506107a991906107ad565b5090565b5b808211156107c65760008160009055506001016107ae565b5090565b6000604051905090565b600080fd5b600080fd5b6000819050919050565b6107f1816107de565b81146107fc57600080fd5b50565b60008135905061080e816107e8565b92915050565b60008060006060848603121561082d5761082c6107d4565b5b600061083b868287016107ff565b935050602061084c868287016107ff565b925050604061085d868287016107ff565b9150509250925092565b60006020828403121561087d5761087c6107d4565b5b600061088b848285016107ff565b91505092915050565b600081519050919050565b600082825260208201905092915050565b6000819050602082019050919050565b600081519050919050565b600082825260208201905092915050565b60005b838110156108fa5780820151818401526020810190506108df565b60008484015250505050565b6000601f19601f8301169050919050565b6000610922826108c0565b61092c81856108cb565b935061093c8185602086016108dc565b61094581610906565b840191505092915050565b600061095c8383610917565b905092915050565b6000602082019050919050565b600061097c82610894565b610986818561089f565b935083602082028501610998856108b0565b8060005b858110156109d457848403895281516109b58582610950565b94506109c083610964565b925060208a0199505060018101905061099c565b50829750879550505050505092915050565b600081519050919050565b600082825260208201905092915050565b6000819050602082019050919050565b610a1b816107de565b82525050565b6000610a2d8383610a12565b60208301905092915050565b6000602082019050919050565b6000610a51826109e6565b610a5b81856109f1565b9350610a6683610a02565b8060005b83811015610a97578151610a7e8882610a21565b9750610a8983610a39565b925050600181019050610a6a565b5085935050505092915050565b60006040820190508181036000830152610abe8185610971565b90508181036020830152610ad28184610a46565b90509392505050565b600080fd5b7f4e487b7100000000000000000000000000000000000000000000000000000000600052604160045260246000fd5b610b1882610906565b810181811067ffffffffffffffff82111715610b3757610b36610ae0565b5b80604052505050565b6000610b4a6107ca565b9050610b568282610b0f565b919050565b600067ffffffffffffffff821115610b7657610b75610ae0565b5b602082029050602081019050919050565b600080fd5b600080fd5b600067ffffffffffffffff821115610bac57610bab610ae0565b5b610bb582610906565b9050602081019050919050565b82818337600083830152505050565b6000610be4610bdf84610b91565b610b40565b905082815260208101848484011115610c0057610bff610b8c565b5b610c0b848285610bc2565b509392505050565b600082601f830112610c2857610c27610adb565b5b8135610c38848260208601610bd1565b91505092915050565b6000610c54610c4f84610b5b565b610b40565b90508083825260208201905060208402830185811115610c7757610c76610b87565b5b835b81811015610cbe57803567ffffffffffffffff811115610c9c57610c9b610adb565b5b808601610ca98982610c13565b85526020850194505050602081019050610c79565b5050509392505050565b600082601f830112610cdd57610cdc610adb565b5b8135610ced848260208601610c41565b91505092915050565b600067ffffffffffffffff821115610d1157610d10610ae0565b5b602082029050602081019050919050565b6000610d35610d3084610cf6565b610b40565b90508083825260208201905060208402830185811115610d5857610d57610b87565b5b835b81811015610d815780610d6d88826107ff565b845260208401935050602081019050610d5a565b5050509392505050565b600082601f830112610da057610d9f610adb565b5b8135610db0848260208601610d22565b91505092915050565b60008060408385031215610dd057610dcf6107d4565b5b600083013567ffffffffffffffff811115610dee57610ded6107d9565b5b610dfa85828601610cc8565b925050602083013567ffffffffffffffff811115610e1b57610e1a6107d9565b5b610e2785828601610d8b565b9150509250929050565b610e3a816107de565b82525050565b6000602082019050610e556000830184610e31565b92915050565b600060208284031215610e7157610e706107d4565b5b600082013567ffffffffffffffff811115610e8f57610e8e6107d9565b5b610e9b84828501610d8b565b91505092915050565b7f4e487b7100000000000000000000000000000000000000000000000000000000600052601160045260246000fd5b6000610ede826107de565b9150610ee9836107de565b9250828201905080821115610f0157610f00610ea4565b5b92915050565b7f4e487b7100000000000000000000000000000000000000000000000000000000600052603260045260246000fd5b7f4e487b7100000000000000000000000000000000000000000000000000000000600052602260045260246000fd5b60006002820490506001821680610f7d57607f821691505b602082108103610f9057610f8f610f36565b5b50919050565b6000610fa1826107de565b91507fffffffffffffffffffffffffffffffffffffffffffffffffffffffffffffffff8203610fd357610fd2610ea4565b5b600182019050919050565b60008190508160005260206000209050919050565b60006020601f8301049050919050565b600082821b905092915050565b6000600883026110407fffffffffffffffffffffffffffffffffffffffffffffffffffffffffffffffff82611003565b61104a8683611003565b95508019841693508086168417925050509392505050565b6000819050919050565b600061108761108261107d846107de565b611062565b6107de565b9050919050565b6000819050919050565b6110a18361106c565b6110b56110ad8261108e565b848454611010565b825550505050565b600090565b6110ca6110bd565b6110d5818484611098565b505050565b5b818110156110f9576110ee6000826110c2565b6001810190506110db565b5050565b601f82111561113e5761110f81610fde565b61111884610ff3565b81016020851015611127578190505b61113b61113385610ff3565b8301826110da565b50505b505050565b600082821c905092915050565b600061116160001984600802611143565b1980831691505092915050565b600061117a8383611150565b9150826002028217905092915050565b611193826108c0565b67ffffffffffffffff8111156111ac576111ab610ae0565b5b6111b68254610f65565b6111c18282856110fd565b600060209050601f8311600181146111f457600084156111e2578287015190505b6111ec858261116e565b865550611254565b601f19841661120286610fde565b60005b8281101561122a57848901518255600182019150602085019450602081019050611205565b868310156112475784890151611243601f891682611150565b8355505b6001600288020188555050505b505050505050565b6000611267826107de565b9150611272836107de565b9250828202611280816107de565b9150828204841483151761129757611296610ea4565b5b509291505056fea2646970667358221220e89002b2e48508b2e5a1b005bd2bd937eb180daca096a2884c1407b79d724f4364736f6c63430008110033",
  "immutableReferences": {},
  "source": "// SPDX-License-Identifier: GPL-3.0\npragma solidity >=0.7.0 <0.9.0;\n\n\ninterface InterfacePlan{\n  function createPlanAndPlanItems(string[] memory item_names, uint[] memory item_amounts) external returns(uint);\n  function updatePlanCollectedAmount(uint plan_id, uint update_by, uint update_tokens_by) external;\n  function fetchMostVotedPlan(uint[] memory plan_ids) external view returns(uint);\n}\n\ncontract PlanC{\n\n    struct PlanItem{\n        uint id;\n        string item_name;\n        uint amount_allocated;\n    }\n    uint latest_plan_item_id;\n    mapping(uint => PlanItem) plan_items;\n\n\n    struct Plan{\n        uint id;\n        uint[] plan_item_ids;\n        uint collected_amount;   // summation of donor's donated amount for this particular plan\n        uint collected_tokens;\n    }\n    uint latest_plan_id;\n    mapping(uint => Plan) plans;\n\n    constructor () {\n        latest_plan_item_id = 0;\n        latest_plan_id = 0;\n    }\n\n\n    function getPlanDetails(uint plan_id) public view returns(string[] memory, uint[] memory){\n        Plan memory plan = plans[plan_id];\n        uint[] memory plan_item_ids = plan.plan_item_ids;\n        uint length = plan_item_ids.length;\n\n        string[] memory plan_item_names = new string[](length);\n        uint[] memory plan_item_amount = new uint[](length);\n        for(uint i = 0; i < length; i++){\n           PlanItem memory plan_item = plan_items[plan_item_ids[i]];\n           plan_item_names[i] = plan_item.item_name;\n           plan_item_amount[i] = plan_item.amount_allocated;\n        }\n\n        return(plan_item_names, plan_item_amount);\n    }\n\n    function createPlanAndPlanItems(string[] memory item_names, uint[] memory item_amounts) external returns(uint){\n        // creating plan_items\n        uint length = item_names.length;\n        uint[] memory created_plan_item_ids = new uint[](length);\n        for(uint i = 0; i < length; i++){\n            PlanItem memory plan_item = PlanItem({id: latest_plan_item_id + 1, item_name: item_names[i], amount_allocated: item_amounts[i]});\n            latest_plan_item_id = latest_plan_item_id + 1;\n            plan_items[latest_plan_item_id] = plan_item;\n            created_plan_item_ids[i] = latest_plan_item_id;\n        }\n\n        // creating plan\n        Plan memory new_plan = Plan({id: latest_plan_id + 1, plan_item_ids: created_plan_item_ids, collected_amount: 0, collected_tokens: 0});\n        latest_plan_id = latest_plan_id + 1;\n        plans[latest_plan_id] = new_plan;\n\n        return latest_plan_id;\n    }\n\n    function updatePlanCollectedAmount(uint plan_id, uint update_by, uint update_tokens_by) external {\n        plans[plan_id].collected_amount = plans[plan_id].collected_amount + update_by;\n        plans[plan_id].collected_tokens = plans[plan_id].collected_tokens + update_tokens_by;\n    }\n\n    function fetchMostVotedPlan(uint[] memory plan_ids) external view returns(uint){\n        uint max_voted_plan_collected_amount = 0;\n        uint max_voted_plan_id = 0;\n\n        for(uint i = 0; i < plan_ids.length; i++){\n          if((plans[plan_ids[i]].collected_amount + (2 * plans[plan_ids[i]].collected_tokens)) > max_voted_plan_collected_amount){\n             max_voted_plan_collected_amount = (plans[plan_ids[i]].collected_amount + 2 * plans[plan_ids[i]].collected_tokens);\n             max_voted_plan_id = plan_ids[i];\n          }\n        }\n\n        return max_voted_plan_id;\n    }\n\n}",
  "sourcePath": "/Users/vamsi/Documents/UB/BlockChain/phase_2_submission/foodbank/contracts/planC.sol",
  "compiler": {
    "name": "solc",
    "version": "0.8.17+commit.8df45f5f.Emscripten.clang"
  },
  "schemaVersion": "3.4.10",
  "updatedAt": "2022-12-07T23:11:12.699Z",
  "networkType": "ethereum",
  "devdoc": {
    "kind": "dev",
    "methods": {},
    "version": 1
  },
  "userdoc": {
    "kind": "user",
    "methods": {},
    "version": 1
  }
}