{
  "contractName": "RatingC",
  "abi": [
    {
      "inputs": [],
      "stateMutability": "nonpayable",
      "type": "constructor"
    },
    {
      "inputs": [
        {
          "internalType": "address",
          "name": "fb_token_c_addr",
          "type": "address"
        }
      ],
      "name": "setFbTokenContractAddr",
      "outputs": [],
      "stateMutability": "nonpayable",
      "type": "function"
    },
    {
      "inputs": [
        {
          "internalType": "uint256",
          "name": "hist_id",
          "type": "uint256"
        },
        {
          "internalType": "uint256",
          "name": "rating",
          "type": "uint256"
        },
        {
          "internalType": "address",
          "name": "user_addr",
          "type": "address"
        },
        {
          "internalType": "uint256",
          "name": "donated_amount",
          "type": "uint256"
        }
      ],
      "name": "createRating",
      "outputs": [
        {
          "internalType": "uint256",
          "name": "",
          "type": "uint256"
        }
      ],
      "stateMutability": "nonpayable",
      "type": "function"
    },
    {
      "inputs": [
        {
          "internalType": "uint256[]",
          "name": "rating_ids",
          "type": "uint256[]"
        }
      ],
      "name": "getCummulativerating",
      "outputs": [
        {
          "internalType": "uint256",
          "name": "",
          "type": "uint256"
        }
      ],
      "stateMutability": "view",
      "type": "function",
      "constant": true
    }
  ],
  "bytecode": "0x608060405234801561001057600080fd5b506000808190555033600360006101000a81548173ffffffffffffffffffffffffffffffffffffffff021916908373ffffffffffffffffffffffffffffffffffffffff160217905550610950806100686000396000f3fe608060405234801561001057600080fd5b50600436106100415760003560e01c80630770a05e146100465780635d56f79314610076578063ceeacafd146100a6575b600080fd5b610060600480360381019061005b9190610497565b6100c2565b60405161006d919061050d565b60405180910390f35b610090600480360381019061008b9190610681565b61024f565b60405161009d919061050d565b60405180910390f35b6100c060048036038101906100bb91906106ca565b610351565b005b6000806040518060a0016040528060016000546100df9190610726565b81526020018781526020018681526020018573ffffffffffffffffffffffffffffffffffffffff16815260200184815250905060016000546101219190610726565b60008190555080600160008054815260200190815260200160002060008201518160000155602082015181600101556040820151816002015560608201518160030160006101000a81548173ffffffffffffffffffffffffffffffffffffffff021916908373ffffffffffffffffffffffffffffffffffffffff160217905550608082015181600401559050506000600260009054906101000a900473ffffffffffffffffffffffffffffffffffffffff1690508073ffffffffffffffffffffffffffffffffffffffff1663cdef91d0866040518263ffffffff1660e01b815260040161020e9190610769565b600060405180830381600087803b15801561022857600080fd5b505af115801561023c573d6000803e3d6000fd5b5050505060005492505050949350505050565b60008060009050600060018451101561029d576040517f08c379a0000000000000000000000000000000000000000000000000000000008152600401610294906107e1565b60405180910390fd5b60005b845181101561033b5760008582815181106102be576102bd610801565b5b60200260200101519050600060016000838152602001908152602001600020600201549050600060016000848152602001908152602001600020600401549050808261030a9190610830565b856103159190610726565b945080866103239190610726565b9550505050808061033390610872565b9150506102a0565b50818161034891906108e9565b92505050919050565b600360009054906101000a900473ffffffffffffffffffffffffffffffffffffffff1673ffffffffffffffffffffffffffffffffffffffff163373ffffffffffffffffffffffffffffffffffffffff16146103ab57600080fd5b80600260006101000a81548173ffffffffffffffffffffffffffffffffffffffff021916908373ffffffffffffffffffffffffffffffffffffffff16021790555050565b6000604051905090565b600080fd5b600080fd5b6000819050919050565b61041681610403565b811461042157600080fd5b50565b6000813590506104338161040d565b92915050565b600073ffffffffffffffffffffffffffffffffffffffff82169050919050565b600061046482610439565b9050919050565b61047481610459565b811461047f57600080fd5b50565b6000813590506104918161046b565b92915050565b600080600080608085870312156104b1576104b06103f9565b5b60006104bf87828801610424565b94505060206104d087828801610424565b93505060406104e187828801610482565b92505060606104f287828801610424565b91505092959194509250565b61050781610403565b82525050565b600060208201905061052260008301846104fe565b92915050565b600080fd5b6000601f19601f8301169050919050565b7f4e487b7100000000000000000000000000000000000000000000000000000000600052604160045260246000fd5b6105768261052d565b810181811067ffffffffffffffff821117156105955761059461053e565b5b80604052505050565b60006105a86103ef565b90506105b4828261056d565b919050565b600067ffffffffffffffff8211156105d4576105d361053e565b5b602082029050602081019050919050565b600080fd5b60006105fd6105f8846105b9565b61059e565b905080838252602082019050602084028301858111156106205761061f6105e5565b5b835b8181101561064957806106358882610424565b845260208401935050602081019050610622565b5050509392505050565b600082601f83011261066857610667610528565b5b81356106788482602086016105ea565b91505092915050565b600060208284031215610697576106966103f9565b5b600082013567ffffffffffffffff8111156106b5576106b46103fe565b5b6106c184828501610653565b91505092915050565b6000602082840312156106e0576106df6103f9565b5b60006106ee84828501610482565b91505092915050565b7f4e487b7100000000000000000000000000000000000000000000000000000000600052601160045260246000fd5b600061073182610403565b915061073c83610403565b9250828201905080821115610754576107536106f7565b5b92915050565b61076381610459565b82525050565b600060208201905061077e600083018461075a565b92915050565b600082825260208201905092915050565b7f456d70747920526174696e677300000000000000000000000000000000000000600082015250565b60006107cb600d83610784565b91506107d682610795565b602082019050919050565b600060208201905081810360008301526107fa816107be565b9050919050565b7f4e487b7100000000000000000000000000000000000000000000000000000000600052603260045260246000fd5b600061083b82610403565b915061084683610403565b925082820261085481610403565b9150828204841483151761086b5761086a6106f7565b5b5092915050565b600061087d82610403565b91507fffffffffffffffffffffffffffffffffffffffffffffffffffffffffffffffff82036108af576108ae6106f7565b5b600182019050919050565b7f4e487b7100000000000000000000000000000000000000000000000000000000600052601260045260246000fd5b60006108f482610403565b91506108ff83610403565b92508261090f5761090e6108ba565b5b82820490509291505056fea2646970667358221220c078a1ae78f3ce0f4c7c361a6606605962cd5969dd07f8453d18fbb8b2d8744064736f6c63430008110033",
  "immutableReferences": {},
  "source": "// SPDX-License-Identifier: GPL-3.0\npragma solidity >=0.7.0 <0.9.0;\nimport './fb_token.sol';\n\n\ninterface InterfaceRating{\n    function createRating(uint hist_id, uint rating, address user_addr, uint donated_amount) external returns(uint);\n    function getCummulativerating(uint[] memory rating_ids) view external returns(uint);\n}\n\ncontract RatingC{\n\n    struct Rating{\n        uint id;\n        uint hist_id;\n        uint value; // rating value\n        address donor_acc_addr;\n        uint donor_donation_amount;\n    }\n    uint latest_rating_id;\n    mapping(uint => Rating) ratings;\n\n    address FbTokenContract;\n    address chairperson;\n\n    constructor () {\n        latest_rating_id = 0;\n        chairperson = msg.sender;\n    }\n\n    modifier onlyCDeployer() \n    {\n       require(msg.sender == chairperson);\n        _;\n    }\n\n    // function setFbTokenContractAddr(address fb_token_c_addr) onlyCDeployer() public{\n    function setFbTokenContractAddr(address fb_token_c_addr) onlyCDeployer() external{\n        FbTokenContract = fb_token_c_addr;\n    }\n\n    function createRating(uint hist_id, uint rating, address user_addr, uint donated_amount) external returns(uint){\n        Rating memory new_rating = Rating({id: latest_rating_id + 1, hist_id: hist_id, value: rating, donor_acc_addr: user_addr, donor_donation_amount: donated_amount});\n        latest_rating_id = latest_rating_id + 1;\n        ratings[latest_rating_id] = new_rating;\n\n        InterfaceFBToken token_interface = InterfaceFBToken(FbTokenContract);\n        token_interface.rewardToken(user_addr);\n\n        return latest_rating_id;\n    }\n\n    function getCummulativerating(uint[] memory rating_ids) view external returns(uint){\n        uint total_amount_collected = 0;\n        uint value = 0;\n\n        require(rating_ids.length >= 1, \"Empty Ratings\");\n\n        for(uint i = 0; i < rating_ids.length; i++){\n            uint rating_id = rating_ids[i];\n            uint rat = ratings[rating_id].value;\n            uint amount = ratings[rating_id].donor_donation_amount;\n\n            value = value + (rat * amount);\n            total_amount_collected = total_amount_collected + amount;\n        }\n\n        return value / total_amount_collected;\n    }\n    \n\n}",
  "sourcePath": "/Users/vamsi/Documents/UB/BlockChain/phase_2_submission/foodbank/contracts/ratingC.sol",
  "compiler": {
    "name": "solc",
    "version": "0.8.17+commit.8df45f5f.Emscripten.clang"
  },
  "schemaVersion": "3.4.10",
  "updatedAt": "2022-12-07T23:11:12.702Z",
  "networkType": "ethereum",
  "devdoc": {
    "kind": "dev",
    "methods": {},
    "version": 1
  },
  "userdoc": {
    "kind": "user",
    "methods": {},
    "version": 1
  }
}