{
  "contractName": "FoodBank",
  "abi": [
    {
      "inputs": [],
      "stateMutability": "nonpayable",
      "type": "constructor"
    },
    {
      "inputs": [
        {
          "internalType": "address",
          "name": "voting_addr",
          "type": "address"
        }
      ],
      "name": "setVotingContractAddr",
      "outputs": [],
      "stateMutability": "nonpayable",
      "type": "function"
    },
    {
      "inputs": [
        {
          "internalType": "address",
          "name": "rating_addr",
          "type": "address"
        }
      ],
      "name": "setRatingContractAddr",
      "outputs": [],
      "stateMutability": "nonpayable",
      "type": "function"
    },
    {
      "inputs": [
        {
          "internalType": "address",
          "name": "plan_addr",
          "type": "address"
        }
      ],
      "name": "setPlanContractAddr",
      "outputs": [],
      "stateMutability": "nonpayable",
      "type": "function"
    },
    {
      "inputs": [
        {
          "internalType": "address",
          "name": "fb_token_addr",
          "type": "address"
        }
      ],
      "name": "setFbTokenContractAddr",
      "outputs": [],
      "stateMutability": "nonpayable",
      "type": "function"
    },
    {
      "inputs": [],
      "name": "getListOfFBS",
      "outputs": [
        {
          "internalType": "address[]",
          "name": "",
          "type": "address[]"
        },
        {
          "internalType": "string[]",
          "name": "",
          "type": "string[]"
        },
        {
          "internalType": "bool[]",
          "name": "",
          "type": "bool[]"
        },
        {
          "internalType": "uint256[]",
          "name": "",
          "type": "uint256[]"
        },
        {
          "internalType": "uint256[]",
          "name": "",
          "type": "uint256[]"
        }
      ],
      "stateMutability": "view",
      "type": "function",
      "constant": true
    },
    {
      "inputs": [
        {
          "internalType": "string",
          "name": "name",
          "type": "string"
        }
      ],
      "name": "createFB",
      "outputs": [],
      "stateMutability": "nonpayable",
      "type": "function"
    },
    {
      "inputs": [
        {
          "internalType": "string",
          "name": "name",
          "type": "string"
        },
        {
          "internalType": "address payable",
          "name": "fb_acc_addr",
          "type": "address"
        }
      ],
      "name": "createFBHistory",
      "outputs": [],
      "stateMutability": "nonpayable",
      "type": "function"
    },
    {
      "inputs": [
        {
          "internalType": "address",
          "name": "acc_addr",
          "type": "address"
        }
      ],
      "name": "getFBHistory",
      "outputs": [
        {
          "internalType": "string[]",
          "name": "",
          "type": "string[]"
        },
        {
          "internalType": "uint256[]",
          "name": "",
          "type": "uint256[]"
        },
        {
          "internalType": "bool[]",
          "name": "",
          "type": "bool[]"
        },
        {
          "internalType": "uint256[]",
          "name": "",
          "type": "uint256[]"
        },
        {
          "internalType": "uint256[]",
          "name": "",
          "type": "uint256[]"
        }
      ],
      "stateMutability": "view",
      "type": "function",
      "constant": true
    },
    {
      "inputs": [
        {
          "internalType": "uint256",
          "name": "fb_hist_id",
          "type": "uint256"
        }
      ],
      "name": "viewFBHistory",
      "outputs": [
        {
          "internalType": "address",
          "name": "",
          "type": "address"
        },
        {
          "internalType": "string",
          "name": "",
          "type": "string"
        },
        {
          "internalType": "bool",
          "name": "",
          "type": "bool"
        },
        {
          "internalType": "uint256[]",
          "name": "",
          "type": "uint256[]"
        },
        {
          "internalType": "uint256[]",
          "name": "",
          "type": "uint256[]"
        },
        {
          "internalType": "uint256[]",
          "name": "",
          "type": "uint256[]"
        }
      ],
      "stateMutability": "view",
      "type": "function",
      "constant": true
    },
    {
      "inputs": [
        {
          "internalType": "uint256",
          "name": "hist_id",
          "type": "uint256"
        }
      ],
      "name": "donate_funds",
      "outputs": [],
      "stateMutability": "payable",
      "type": "function",
      "payable": true
    },
    {
      "inputs": [
        {
          "internalType": "uint256",
          "name": "hist_id",
          "type": "uint256"
        }
      ],
      "name": "withdraw_funds",
      "outputs": [],
      "stateMutability": "nonpayable",
      "type": "function"
    },
    {
      "inputs": [
        {
          "internalType": "string",
          "name": "name",
          "type": "string"
        }
      ],
      "name": "createDonor",
      "outputs": [],
      "stateMutability": "nonpayable",
      "type": "function"
    },
    {
      "inputs": [],
      "name": "getListOfDonors",
      "outputs": [
        {
          "internalType": "address[]",
          "name": "",
          "type": "address[]"
        },
        {
          "internalType": "string[]",
          "name": "",
          "type": "string[]"
        },
        {
          "internalType": "uint256[]",
          "name": "",
          "type": "uint256[]"
        }
      ],
      "stateMutability": "view",
      "type": "function",
      "constant": true
    },
    {
      "inputs": [
        {
          "internalType": "address",
          "name": "donor_addr",
          "type": "address"
        }
      ],
      "name": "viewDonorDetails",
      "outputs": [
        {
          "internalType": "string",
          "name": "",
          "type": "string"
        },
        {
          "internalType": "uint256",
          "name": "",
          "type": "uint256"
        },
        {
          "internalType": "uint256[]",
          "name": "",
          "type": "uint256[]"
        }
      ],
      "stateMutability": "view",
      "type": "function",
      "constant": true
    },
    {
      "inputs": [
        {
          "internalType": "uint256",
          "name": "donor_activity_id",
          "type": "uint256"
        }
      ],
      "name": "getDonorActivityDetails",
      "outputs": [
        {
          "internalType": "address",
          "name": "",
          "type": "address"
        },
        {
          "internalType": "uint256[]",
          "name": "",
          "type": "uint256[]"
        },
        {
          "internalType": "bool",
          "name": "",
          "type": "bool"
        },
        {
          "internalType": "address",
          "name": "",
          "type": "address"
        },
        {
          "internalType": "string[]",
          "name": "",
          "type": "string[]"
        }
      ],
      "stateMutability": "view",
      "type": "function",
      "constant": true
    },
    {
      "inputs": [
        {
          "internalType": "uint256",
          "name": "hist_id",
          "type": "uint256"
        }
      ],
      "name": "updateFbHistStateToStartFundCollection",
      "outputs": [],
      "stateMutability": "nonpayable",
      "type": "function"
    },
    {
      "inputs": [
        {
          "internalType": "uint256",
          "name": "hist_id",
          "type": "uint256"
        },
        {
          "internalType": "string[]",
          "name": "item_names",
          "type": "string[]"
        },
        {
          "internalType": "uint256[]",
          "name": "item_amounts",
          "type": "uint256[]"
        }
      ],
      "name": "createFbHistPlan",
      "outputs": [],
      "stateMutability": "nonpayable",
      "type": "function"
    },
    {
      "inputs": [
        {
          "internalType": "uint256",
          "name": "hist_id",
          "type": "uint256"
        }
      ],
      "name": "startVoting",
      "outputs": [],
      "stateMutability": "nonpayable",
      "type": "function"
    },
    {
      "inputs": [
        {
          "internalType": "uint256",
          "name": "plan_id",
          "type": "uint256"
        },
        {
          "internalType": "uint256",
          "name": "hist_id",
          "type": "uint256"
        },
        {
          "internalType": "uint256",
          "name": "tokens",
          "type": "uint256"
        }
      ],
      "name": "registerVote",
      "outputs": [],
      "stateMutability": "nonpayable",
      "type": "function"
    },
    {
      "inputs": [
        {
          "internalType": "uint256",
          "name": "hist_id",
          "type": "uint256"
        }
      ],
      "name": "endVotingAndFetchMostVotedPlan",
      "outputs": [],
      "stateMutability": "nonpayable",
      "type": "function"
    },
    {
      "inputs": [
        {
          "internalType": "uint256",
          "name": "hist_id",
          "type": "uint256"
        }
      ],
      "name": "submitBill",
      "outputs": [],
      "stateMutability": "nonpayable",
      "type": "function"
    },
    {
      "inputs": [
        {
          "internalType": "uint256",
          "name": "hist_id",
          "type": "uint256"
        },
        {
          "internalType": "uint256",
          "name": "rating",
          "type": "uint256"
        }
      ],
      "name": "submitRating",
      "outputs": [],
      "stateMutability": "nonpayable",
      "type": "function"
    }
  ],
  "bytecode": "0x608060405234801561001057600080fd5b506000600381905550600060048190555033600c60006101000a81548173ffffffffffffffffffffffffffffffffffffffff021916908373ffffffffffffffffffffffffffffffffffffffff160217905550615f1080620000726000396000f3fe6080604052600436106101355760003560e01c80637e979f94116100ab578063b8b60d6e1161006f578063b8b60d6e14610415578063bf65a2e514610444578063ceeacafd1461046d578063d742e4a314610496578063da194668146104bf578063fe259f731461050057610135565b80637e979f941461032b57806386583faf1461036d57806389b1d0121461039a5780638b70d632146103c3578063997ff8c0146103ec57610135565b80633d2f5bda116100fd5780633d2f5bda1461021f578063408294a5146102485780635086774f146102715780635d2c53a71461029a57806368785190146102c3578063708511711461030257610135565b806301b423031461013a5780630df11b1c1461017b57806318c0ad23146101a4578063234c4b16146101cd5780633184bd59146101f6575b600080fd5b34801561014657600080fd5b50610161600480360381019061015c9190614a4f565b61051c565b604051610172959493929190614d60565b60405180910390f35b34801561018757600080fd5b506101a2600480360381019061019d9190614f0b565b610a3e565b005b3480156101b057600080fd5b506101cb60048036038101906101c69190614f0b565b610d1b565b005b3480156101d957600080fd5b506101f460048036038101906101ef9190614a4f565b61104e565b005b34801561020257600080fd5b5061021d60048036038101906102189190614a4f565b61109a565b005b34801561022b57600080fd5b5061024660048036038101906102419190614f80565b6110e6565b005b34801561025457600080fd5b5061026f600480360381019061026a9190614f80565b611121565b005b34801561027d57600080fd5b5061029860048036038101906102939190614feb565b61121c565b005b3480156102a657600080fd5b506102c160048036038101906102bc9190614f80565b6115a0565b005b3480156102cf57600080fd5b506102ea60048036038101906102e59190614a4f565b61167b565b6040516102f9939291906150a0565b60405180910390f35b34801561030e57600080fd5b50610329600480360381019061032491906150e5565b611848565b005b34801561033757600080fd5b50610352600480360381019061034d9190614f80565b611979565b60405161036496959493929190615143565b60405180910390f35b34801561037957600080fd5b50610382611e2d565b6040516103919392919061527e565b60405180910390f35b3480156103a657600080fd5b506103c160048036038101906103bc91906152ca565b6121b8565b005b3480156103cf57600080fd5b506103ea60048036038101906103e59190614a4f565b612639565b005b3480156103f857600080fd5b50610413600480360381019061040e9190614f80565b612685565b005b34801561042157600080fd5b5061042a61288e565b60405161043b95949392919061531d565b60405180910390f35b34801561045057600080fd5b5061046b6004803603810190610466919061553c565b612d45565b005b34801561047957600080fd5b50610494600480360381019061048f9190614a4f565b612e4f565b005b3480156104a257600080fd5b506104bd60048036038101906104b89190614f80565b612e9b565b005b3480156104cb57600080fd5b506104e660048036038101906104e19190614f80565b613014565b6040516104f79594939291906155c7565b60405180910390f35b61051a60048036038101906105159190614f80565b6134ca565b005b6060806060806060600060018054905090506000805b828110156105ce576000600182815481106105505761054f615628565b5b9060005260206000200160009054906101000a900473ffffffffffffffffffffffffffffffffffffffff1690508973ffffffffffffffffffffffffffffffffffffffff168173ffffffffffffffffffffffffffffffffffffffff16036105ba5760019250506105ce565b5080806105c690615686565b915050610532565b506001151581151514610616576040517f08c379a000000000000000000000000000000000000000000000000000000000815260040161060d9061571a565b60405180910390fd5b60008060008a73ffffffffffffffffffffffffffffffffffffffff1673ffffffffffffffffffffffffffffffffffffffff1681526020019081526020016000206005018054806020026020016040519081016040528092919081815260200182805480156106a357602002820191906000526020600020905b81548152602001906001019080831161068f575b5050505050905060008151905060008167ffffffffffffffff8111156106cc576106cb614de0565b5b6040519080825280602002602001820160405280156106ff57816020015b60608152602001906001900390816106ea5790505b50905060008267ffffffffffffffff81111561071e5761071d614de0565b5b60405190808252806020026020018201604052801561074c5781602001602082028036833780820191505090505b50905060008367ffffffffffffffff81111561076b5761076a614de0565b5b6040519080825280602002602001820160405280156107995781602001602082028036833780820191505090505b50905060008467ffffffffffffffff8111156107b8576107b7614de0565b5b6040519080825280602002602001820160405280156107e65781602001602082028036833780820191505090505b50905060008567ffffffffffffffff81111561080557610804614de0565b5b6040519080825280602002602001820160405280156108335781602001602082028036833780820191505090505b50905060005b86811015610a1c57600088828151811061085657610855615628565b5b6020026020010151905060026000828152602001908152602001600020600201805461088190615769565b80601f01602080910402602001604051908101604052809291908181526020018280546108ad90615769565b80156108fa5780601f106108cf576101008083540402835291602001916108fa565b820191906000526020600020905b8154815290600101906020018083116108dd57829003601f168201915b505050505087838151811061091257610911615628565b5b6020026020010181905250600260008281526020019081526020016000206007015486838151811061094757610946615628565b5b6020026020010181815250506002600082815260200190815260200160002060030160009054906101000a900460ff1685838151811061098a57610989615628565b5b60200260200101901515908115158152505060026000828152602001908152602001600020600601548483815181106109c6576109c5615628565b5b60200260200101818152505060026000828152602001908152602001600020600001548383815181106109fc576109fb615628565b5b602002602001018181525050508080610a1490615686565b915050610839565b5084848484849d509d509d509d509d5050505050505050505091939590929450565b3360006001905060005b600780549050811015610ae2578273ffffffffffffffffffffffffffffffffffffffff1660078281548110610a8057610a7f615628565b5b9060005260206000200160009054906101000a900473ffffffffffffffffffffffffffffffffffffffff1673ffffffffffffffffffffffffffffffffffffffff1603610acf5760009150610ae2565b8080610ada90615686565b915050610a48565b506001151581151514610af457600080fd5b600033905083600660008373ffffffffffffffffffffffffffffffffffffffff1673ffffffffffffffffffffffffffffffffffffffff1681526020019081526020016000206001019081610b489190615946565b5080600660008373ffffffffffffffffffffffffffffffffffffffff1673ffffffffffffffffffffffffffffffffffffffff16815260200190815260200160002060000160006101000a81548173ffffffffffffffffffffffffffffffffffffffff021916908373ffffffffffffffffffffffffffffffffffffffff1602179055506000600660008373ffffffffffffffffffffffffffffffffffffffff1673ffffffffffffffffffffffffffffffffffffffff16815260200190815260200160002060020181905550600067ffffffffffffffff811115610c2d57610c2c614de0565b5b604051908082528060200260200182016040528015610c5b5781602001602082028036833780820191505090505b50600660008373ffffffffffffffffffffffffffffffffffffffff1673ffffffffffffffffffffffffffffffffffffffff1681526020019081526020016000206003019080519060200190610cb19291906148e9565b506007819080600181540180825580915050600190039060005260206000200160009091909190916101000a81548173ffffffffffffffffffffffffffffffffffffffff021916908373ffffffffffffffffffffffffffffffffffffffff16021790555050505050565b3360006001905060005b600180549050811015610dbf578273ffffffffffffffffffffffffffffffffffffffff1660018281548110610d5d57610d5c615628565b5b9060005260206000200160009054906101000a900473ffffffffffffffffffffffffffffffffffffffff1673ffffffffffffffffffffffffffffffffffffffff1603610dac5760009150610dbf565b8080610db790615686565b915050610d25565b506001151581151514610dd157600080fd5b6000339050836000808373ffffffffffffffffffffffffffffffffffffffff1673ffffffffffffffffffffffffffffffffffffffff1681526020019081526020016000206000019081610e249190615946565b50806000808373ffffffffffffffffffffffffffffffffffffffff1673ffffffffffffffffffffffffffffffffffffffff16815260200190815260200160002060020160006101000a81548173ffffffffffffffffffffffffffffffffffffffff021916908373ffffffffffffffffffffffffffffffffffffffff16021790555060008060008373ffffffffffffffffffffffffffffffffffffffff1673ffffffffffffffffffffffffffffffffffffffff16815260200190815260200160002060040160006101000a81548160ff02191690831515021790555060008060008373ffffffffffffffffffffffffffffffffffffffff1673ffffffffffffffffffffffffffffffffffffffff16815260200190815260200160002060030181905550600067ffffffffffffffff811115610f6157610f60614de0565b5b604051908082528060200260200182016040528015610f8f5781602001602082028036833780820191505090505b506000808373ffffffffffffffffffffffffffffffffffffffff1673ffffffffffffffffffffffffffffffffffffffff1681526020019081526020016000206005019080519060200190610fe49291906148e9565b506001819080600181540180825580915050600190039060005260206000200160009091909190916101000a81548173ffffffffffffffffffffffffffffffffffffffff021916908373ffffffffffffffffffffffffffffffffffffffff16021790555050505050565b611056613956565b80600a60006101000a81548173ffffffffffffffffffffffffffffffffffffffff021916908373ffffffffffffffffffffffffffffffffffffffff16021790555050565b6110a2613956565b80600960006101000a81548173ffffffffffffffffffffffffffffffffffffffff021916908373ffffffffffffffffffffffffffffffffffffffff16021790555050565b80336110f282826139b2565b8260016110ff8282613d43565b6002806000878152602001908152602001600020600401819055505050505050565b803361112d82826139b2565b82600061113a8282613d43565b6001600260008781526020019081526020016000206004018190555060016002600087815260200190815260200160002060030160006101000a81548160ff02191690831515021790555060016000806002600089815260200190815260200160002060010160009054906101000a900473ffffffffffffffffffffffffffffffffffffffff1673ffffffffffffffffffffffffffffffffffffffff1673ffffffffffffffffffffffffffffffffffffffff16815260200190815260200160002060040160006101000a81548160ff0219169083151502179055505050505050565b33818073ffffffffffffffffffffffffffffffffffffffff168273ffffffffffffffffffffffffffffffffffffffff161461128c576040517f08c379a000000000000000000000000000000000000000000000000000000000815260040161128390615a64565b60405180910390fd5b60008067ffffffffffffffff8111156112a8576112a7614de0565b5b6040519080825280602002602001820160405280156112d65781602001602082028036833780820191505090505b5090506000604051806101c0016040528060016003546112f69190615a84565b81526020018673ffffffffffffffffffffffffffffffffffffffff16815260200187815260200160001515815260200160008152602001600581526020016000815260200160008152602001600067ffffffffffffffff81111561135d5761135c614de0565b5b60405190808252806020026020018201604052801561138b5781602001602082028036833780820191505090505b5081526020018381526020018381526020018381526020016000815260200183815250905060016003546113bf9190615a84565b600381905550806002600060035481526020019081526020016000206000820151816000015560208201518160010160006101000a81548173ffffffffffffffffffffffffffffffffffffffff021916908373ffffffffffffffffffffffffffffffffffffffff16021790555060408201518160020190816114419190615946565b5060608201518160030160006101000a81548160ff0219169083151502179055506080820151816004015560a0820151816005015560c0820151816006015560e082015181600701556101008201518160080190805190602001906114a7929190614936565b506101208201518160090190805190602001906114c59291906148e9565b5061014082015181600a0190805190602001906114e39291906148e9565b5061016082015181600b0190805190602001906115019291906148e9565b5061018082015181600c01556101a082015181600d01908051906020019061152a9291906148e9565b509050506000808673ffffffffffffffffffffffffffffffffffffffff1673ffffffffffffffffffffffffffffffffffffffff1681526020019081526020016000206005016003549080600181540180825580915050600190039060005260206000200160009091909190915055505050505050565b80336115ac82826139b2565b8260036115b98282613d43565b60006002600087815260200190815260200160002060010160009054906101000a900473ffffffffffffffffffffffffffffffffffffffff1690506000600260008881526020019081526020016000206006015490508173ffffffffffffffffffffffffffffffffffffffff166108fc829081150290604051600060405180830381858888f19350505050158015611655573d6000803e3d6000fd5b506004600260008981526020019081526020016000206004018190555050505050505050565b6060600060606000600660008673ffffffffffffffffffffffffffffffffffffffff1673ffffffffffffffffffffffffffffffffffffffff1681526020019081526020016000206040518060800160405290816000820160009054906101000a900473ffffffffffffffffffffffffffffffffffffffff1673ffffffffffffffffffffffffffffffffffffffff1673ffffffffffffffffffffffffffffffffffffffff16815260200160018201805461173390615769565b80601f016020809104026020016040519081016040528092919081815260200182805461175f90615769565b80156117ac5780601f10611781576101008083540402835291602001916117ac565b820191906000526020600020905b81548152906001019060200180831161178f57829003601f168201915b50505050508152602001600282015481526020016003820180548060200260200160405190810160405280929190818152602001828054801561180e57602002820191906000526020600020905b8154815260200190600101908083116117fa575b5050505050815250509050600081602001519050600082604001519050600083606001519050828282965096509650505050509193909250565b8160056118558282613d43565b83336000805b600260008581526020019081526020016000206008018054905081101561191d578273ffffffffffffffffffffffffffffffffffffffff166002600086815260200190815260200160002060080182815481106118bb576118ba615628565b5b9060005260206000200160009054906101000a900473ffffffffffffffffffffffffffffffffffffffff1673ffffffffffffffffffffffffffffffffffffffff160361190a576001915061191d565b808061191590615686565b91505061185b565b506001151581151514611965576040517f08c379a000000000000000000000000000000000000000000000000000000000815260040161195c90615b04565b60405180910390fd5b6119708733886140a8565b50505050505050565b6000606060006060806060600060026000898152602001908152602001600020604051806101c0016040529081600082015481526020016001820160009054906101000a900473ffffffffffffffffffffffffffffffffffffffff1673ffffffffffffffffffffffffffffffffffffffff1673ffffffffffffffffffffffffffffffffffffffff168152602001600282018054611a1590615769565b80601f0160208091040260200160405190810160405280929190818152602001828054611a4190615769565b8015611a8e5780601f10611a6357610100808354040283529160200191611a8e565b820191906000526020600020905b815481529060010190602001808311611a7157829003601f168201915b505050505081526020016003820160009054906101000a900460ff161515151581526020016004820154815260200160058201548152602001600682015481526020016007820154815260200160088201805480602002602001604051908101604052809291908181526020018280548015611b5f57602002820191906000526020600020905b8160009054906101000a900473ffffffffffffffffffffffffffffffffffffffff1673ffffffffffffffffffffffffffffffffffffffff1681526020019060010190808311611b15575b5050505050815260200160098201805480602002602001604051908101604052809291908181526020018280548015611bb757602002820191906000526020600020905b815481526020019060010190808311611ba3575b50505050508152602001600a8201805480602002602001604051908101604052809291908181526020018280548015611c0f57602002820191906000526020600020905b815481526020019060010190808311611bfb575b50505050508152602001600b8201805480602002602001604051908101604052809291908181526020018280548015611c6757602002820191906000526020600020905b815481526020019060010190808311611c53575b50505050508152602001600c8201548152602001600d8201805480602002602001604051908101604052809291908181526020018280548015611cc957602002820191906000526020600020905b815481526020019060010190808311611cb5575b50505050508152505090506000816020015190506000826040015190506000836060015190506000600567ffffffffffffffff811115611d0c57611d0b614de0565b5b604051908082528060200260200182016040528015611d3a5781602001602082028036833780820191505090505b509050846080015181600081518110611d5657611d55615628565b5b6020026020010181815250508460a0015181600181518110611d7b57611d7a615628565b5b6020026020010181815250508460c0015181600281518110611da057611d9f615628565b5b6020026020010181815250508460e0015181600381518110611dc557611dc4615628565b5b60200260200101818152505084610180015181600481518110611deb57611dea615628565b5b60200260200101818152505060008561012001519050600086610140015190508585858585859c509c509c509c509c509c505050505050505091939550919395565b60608060606000600780549050905060008167ffffffffffffffff811115611e5857611e57614de0565b5b604051908082528060200260200182016040528015611e8b57816020015b6060815260200190600190039081611e765790505b50905060008267ffffffffffffffff811115611eaa57611ea9614de0565b5b604051908082528060200260200182016040528015611ed85781602001602082028036833780820191505090505b50905060005b8381101561211d57600060078281548110611efc57611efb615628565b5b9060005260206000200160009054906101000a900473ffffffffffffffffffffffffffffffffffffffff1690506000600660008373ffffffffffffffffffffffffffffffffffffffff1673ffffffffffffffffffffffffffffffffffffffff1681526020019081526020016000206040518060800160405290816000820160009054906101000a900473ffffffffffffffffffffffffffffffffffffffff1673ffffffffffffffffffffffffffffffffffffffff1673ffffffffffffffffffffffffffffffffffffffff168152602001600182018054611fdb90615769565b80601f016020809104026020016040519081016040528092919081815260200182805461200790615769565b80156120545780601f1061202957610100808354040283529160200191612054565b820191906000526020600020905b81548152906001019060200180831161203757829003601f168201915b5050505050815260200160028201548152602001600382018054806020026020016040519081016040528092919081815260200182805480156120b657602002820191906000526020600020905b8154815260200190600101908083116120a2575b505050505081525050905080602001518584815181106120d9576120d8615628565b5b602002602001018190525080604001518484815181106120fc576120fb615628565b5b6020026020010181815250505050808061211590615686565b915050611ede565b5060078282828054806020026020016040519081016040528092919081815260200182805480156121a357602002820191906000526020600020905b8160009054906101000a900473ffffffffffffffffffffffffffffffffffffffff1673ffffffffffffffffffffffffffffffffffffffff1681526020019060010190808311612159575b50505050509250955095509550505050909192565b82826000805b60026000848152602001908152602001600020600a0180549050811015612234578360026000858152602001908152602001600020600a01828154811061220857612207615628565b5b9060005260206000200154036122215760019150612234565b808061222c90615686565b9150506121be565b50600115158115151461224657600080fd5b83336122528282614747565b60003390506000805b600260008b815260200190815260200160002060090180549050811015612364578273ffffffffffffffffffffffffffffffffffffffff1660056000600260008e815260200190815260200160002060090184815481106122bf576122be615628565b5b9060005260206000200154815260200190815260200160002060010160009054906101000a900473ffffffffffffffffffffffffffffffffffffffff1673ffffffffffffffffffffffffffffffffffffffff160361235157600260008b8152602001908152602001600020600901818154811061233f5761233e615628565b5b90600052602060002001549150612364565b808061235c90615686565b91505061225b565b5060028060008b8152602001908152602001600020600401541461238757600080fd5b600081036123ca576040517f08c379a00000000000000000000000000000000000000000000000000000000081526004016123c190615b70565b60405180910390fd5b600015156005600083815260200190815260200160002060060160009054906101000a900460ff16151514612434576040517f08c379a000000000000000000000000000000000000000000000000000000000815260040161242b90615bdc565b60405180910390fd5b60016005600083815260200190815260200160002060060160006101000a81548160ff0219169083151502179055508960056000838152602001908152602001600020600701819055506000600a60009054906101000a900473ffffffffffffffffffffffffffffffffffffffff1690508073ffffffffffffffffffffffffffffffffffffffff1663314487a88c60056000868152602001908152602001600020600501548c6040518463ffffffff1660e01b81526004016124f893929190615bfc565b600060405180830381600087803b15801561251257600080fd5b505af1158015612526573d6000803e3d6000fd5b505050506000600860009054906101000a900473ffffffffffffffffffffffffffffffffffffffff16905060008173ffffffffffffffffffffffffffffffffffffffff1663bf58b29e868f60056000898152602001908152602001600020600501548f6040518563ffffffff1660e01b81526004016125a89493929190615c33565b6020604051808303816000875af11580156125c7573d6000803e3d6000fd5b505050506040513d601f19601f820116820180604052508101906125eb9190615c8d565b9050600260008d8152602001908152602001600020600d0181908060018154018082558091505060019003906000526020600020016000909190919091505550505050505050505050505050565b612641613956565b80600860006101000a81548173ffffffffffffffffffffffffffffffffffffffff021916908373ffffffffffffffffffffffffffffffffffffffff16021790555050565b8060046126928282613d43565b823361269e82826139b2565b6005600260008781526020019081526020016000206004018190555060006002600087815260200190815260200160002060030160006101000a81548160ff02191690831515021790555060006002600087815260200190815260200160002060010160009054906101000a900473ffffffffffffffffffffffffffffffffffffffff16905060008060008373ffffffffffffffffffffffffffffffffffffffff1673ffffffffffffffffffffffffffffffffffffffff1681526020019081526020016000206005018054806020026020016040519081016040528092919081815260200182805480156127b157602002820191906000526020600020905b81548152602001906001019080831161279d575b505050505090506000805b825181101561282a5760011515600260008584815181106127e0576127df615628565b5b6020026020010151815260200190815260200160002060030160009054906101000a900460ff16151503612817576001915061282a565b808061282290615686565b9150506127bc565b50806000808573ffffffffffffffffffffffffffffffffffffffff1673ffffffffffffffffffffffffffffffffffffffff16815260200190815260200160002060040160006101000a81548160ff0219169083151502179055505050505050505050565b60608060608060606000600180549050905060008167ffffffffffffffff8111156128bc576128bb614de0565b5b6040519080825280602002602001820160405280156128ea5781602001602082028036833780820191505090505b50905060008267ffffffffffffffff81111561290957612908614de0565b5b60405190808252806020026020018201604052801561293c57816020015b60608152602001906001900390816129275790505b50905060008367ffffffffffffffff81111561295b5761295a614de0565b5b6040519080825280602002602001820160405280156129895781602001602082028036833780820191505090505b50905060008467ffffffffffffffff8111156129a8576129a7614de0565b5b6040519080825280602002602001820160405280156129d65781602001602082028036833780820191505090505b50905060008567ffffffffffffffff8111156129f5576129f4614de0565b5b604051908082528060200260200182016040528015612a235781602001602082028036833780820191505090505b50905060005b86811015612d2857600060018281548110612a4757612a46615628565b5b9060005260206000200160009054906101000a900473ffffffffffffffffffffffffffffffffffffffff16905080878381518110612a8857612a87615628565b5b602002602001019073ffffffffffffffffffffffffffffffffffffffff16908173ffffffffffffffffffffffffffffffffffffffff168152505060008060008373ffffffffffffffffffffffffffffffffffffffff1673ffffffffffffffffffffffffffffffffffffffff1681526020019081526020016000206040518060c0016040529081600082018054612b1d90615769565b80601f0160208091040260200160405190810160405280929190818152602001828054612b4990615769565b8015612b965780601f10612b6b57610100808354040283529160200191612b96565b820191906000526020600020905b815481529060010190602001808311612b7957829003601f168201915b50505050508152602001600182015481526020016002820160009054906101000a900473ffffffffffffffffffffffffffffffffffffffff1673ffffffffffffffffffffffffffffffffffffffff1673ffffffffffffffffffffffffffffffffffffffff168152602001600382015481526020016004820160009054906101000a900460ff1615151515815260200160058201805480602002602001604051908101604052809291908181526020018280548015612c7357602002820191906000526020600020905b815481526020019060010190808311612c5f575b50505050508152505090508060000151878481518110612c9657612c95615628565b5b60200260200101819052508060800151868481518110612cb957612cb8615628565b5b6020026020010190151590811515815250508060600151858481518110612ce357612ce2615628565b5b6020026020010181815250508060200151848481518110612d0757612d06615628565b5b60200260200101818152505050508080612d2090615686565b915050612a29565b5084848484849a509a509a509a509a505050505050509091929394565b8233612d5182826139b2565b846001612d5e8282613d43565b6000600a60009054906101000a900473ffffffffffffffffffffffffffffffffffffffff16905060008173ffffffffffffffffffffffffffffffffffffffff1663d275eda889896040518363ffffffff1660e01b8152600401612dc2929190615cba565b6020604051808303816000875af1158015612de1573d6000803e3d6000fd5b505050506040513d601f19601f82011682018060405250810190612e059190615c8d565b9050600260008a8152602001908152602001600020600a01819080600181540180825580915050600190039060005260206000200160009091909190915055505050505050505050565b612e57613956565b80600b60006101000a81548173ffffffffffffffffffffffffffffffffffffffff021916908373ffffffffffffffffffffffffffffffffffffffff16021790555050565b806002612ea88282613d43565b8233612eb482826139b2565b600060026000878152602001908152602001600020600a01805480602002602001604051908101604052809291908181526020018280548015612f1657602002820191906000526020600020905b815481526020019060010190808311612f02575b505050505090506000600a60009054906101000a900473ffffffffffffffffffffffffffffffffffffffff16905060008173ffffffffffffffffffffffffffffffffffffffff1663d3ce79e2846040518263ffffffff1660e01b8152600401612f7f9190615cf1565b602060405180830381865afa158015612f9c573d6000803e3d6000fd5b505050506040513d601f19601f82011682018060405250810190612fc09190615c8d565b905060008103612fd357612fd2615d13565b5b6003600260008a81526020019081526020016000206004018190555080600260008a8152602001908152602001600020600c01819055505050505050505050565b60006060600080606060006005600088815260200190815260200160002060020160009054906101000a900473ffffffffffffffffffffffffffffffffffffffff1690506000600367ffffffffffffffff81111561307557613074614de0565b5b6040519080825280602002602001820160405280156130a35781602001602082028036833780820191505090505b5090506000600560008a815260200190815260200160002060060160009054906101000a900460ff1690506000600560008b815260200190815260200160002060010160009054906101000a900473ffffffffffffffffffffffffffffffffffffffff1690506000600367ffffffffffffffff81111561312657613125614de0565b5b60405190808252806020026020018201604052801561315957816020015b60608152602001906001900390816131445790505b509050600560008c8152602001908152602001600020600301548460008151811061318757613186615628565b5b602002602001018181525050600560008c815260200190815260200160002060050154846001815181106131be576131bd615628565b5b602002602001018181525050600560008c815260200190815260200160002060070154846002815181106131f5576131f4615628565b5b602002602001018181525050600660008373ffffffffffffffffffffffffffffffffffffffff1673ffffffffffffffffffffffffffffffffffffffff168152602001908152602001600020600101805461324e90615769565b80601f016020809104026020016040519081016040528092919081815260200182805461327a90615769565b80156132c75780601f1061329c576101008083540402835291602001916132c7565b820191906000526020600020905b8154815290600101906020018083116132aa57829003601f168201915b5050505050816000815181106132e0576132df615628565b5b6020026020010181905250600260008560008151811061330357613302615628565b5b60200260200101518152602001908152602001600020600201805461332790615769565b80601f016020809104026020016040519081016040528092919081815260200182805461335390615769565b80156133a05780601f10613375576101008083540402835291602001916133a0565b820191906000526020600020905b81548152906001019060200180831161338357829003601f168201915b5050505050816001815181106133b9576133b8615628565b5b60200260200101819052506000808673ffffffffffffffffffffffffffffffffffffffff1673ffffffffffffffffffffffffffffffffffffffff168152602001908152602001600020600001805461341090615769565b80601f016020809104026020016040519081016040528092919081815260200182805461343c90615769565b80156134895780601f1061345e57610100808354040283529160200191613489565b820191906000526020600020905b81548152906001019060200180831161346c57829003601f168201915b5050505050816002815181106134a2576134a1615628565b5b6020026020010181905250848484848499509950995099509950505050505091939590929450565b8060016134d78282613d43565b336134e181614835565b6000339050600034905080600260008881526020019081526020016000206006015461350d9190615a84565b600260008881526020019081526020016000206006018190555060006002600088815260200190815260200160002060010160009054906101000a900473ffffffffffffffffffffffffffffffffffffffff169050816000808373ffffffffffffffffffffffffffffffffffffffff1673ffffffffffffffffffffffffffffffffffffffff168152602001908152602001600020600301546135af9190615a84565b6000808373ffffffffffffffffffffffffffffffffffffffff1673ffffffffffffffffffffffffffffffffffffffff1681526020019081526020016000206003018190555081600660008573ffffffffffffffffffffffffffffffffffffffff1673ffffffffffffffffffffffffffffffffffffffff168152602001908152602001600020600201546136429190615a84565b600660008573ffffffffffffffffffffffffffffffffffffffff1673ffffffffffffffffffffffffffffffffffffffff16815260200190815260200160002060020181905550600060405180610100016040528060016004546136a59190615a84565b81526020018573ffffffffffffffffffffffffffffffffffffffff1681526020018373ffffffffffffffffffffffffffffffffffffffff1681526020018981526020016001151581526020018481526020016000151581526020016000815250905060016004546137169190615a84565b600481905550600660008573ffffffffffffffffffffffffffffffffffffffff1673ffffffffffffffffffffffffffffffffffffffff1681526020019081526020016000206003016004549080600181540180825580915050600190039060005260206000200160009091909190915055806005600060045481526020019081526020016000206000820151816000015560208201518160010160006101000a81548173ffffffffffffffffffffffffffffffffffffffff021916908373ffffffffffffffffffffffffffffffffffffffff16021790555060408201518160020160006101000a81548173ffffffffffffffffffffffffffffffffffffffff021916908373ffffffffffffffffffffffffffffffffffffffff1602179055506060820151816003015560808201518160040160006101000a81548160ff02191690831515021790555060a0820151816005015560c08201518160060160006101000a81548160ff02191690831515021790555060e0820151816007015590505060026000898152602001908152602001600020600901600454908060018154018082558091505060019003906000526020600020016000909190919091505560026000898152602001908152602001600020600801849080600181540180825580915050600190039060005260206000200160009091909190916101000a81548173ffffffffffffffffffffffffffffffffffffffff021916908373ffffffffffffffffffffffffffffffffffffffff1602179055505050505050505050565b600c60009054906101000a900473ffffffffffffffffffffffffffffffffffffffff1673ffffffffffffffffffffffffffffffffffffffff163373ffffffffffffffffffffffffffffffffffffffff16146139b057600080fd5b565b600060026000848152602001908152602001600020604051806101c0016040529081600082015481526020016001820160009054906101000a900473ffffffffffffffffffffffffffffffffffffffff1673ffffffffffffffffffffffffffffffffffffffff1673ffffffffffffffffffffffffffffffffffffffff168152602001600282018054613a4390615769565b80601f0160208091040260200160405190810160405280929190818152602001828054613a6f90615769565b8015613abc5780601f10613a9157610100808354040283529160200191613abc565b820191906000526020600020905b815481529060010190602001808311613a9f57829003601f168201915b505050505081526020016003820160009054906101000a900460ff161515151581526020016004820154815260200160058201548152602001600682015481526020016007820154815260200160088201805480602002602001604051908101604052809291908181526020018280548015613b8d57602002820191906000526020600020905b8160009054906101000a900473ffffffffffffffffffffffffffffffffffffffff1673ffffffffffffffffffffffffffffffffffffffff1681526020019060010190808311613b43575b5050505050815260200160098201805480602002602001604051908101604052809291908181526020018280548015613be557602002820191906000526020600020905b815481526020019060010190808311613bd1575b50505050508152602001600a8201805480602002602001604051908101604052809291908181526020018280548015613c3d57602002820191906000526020600020905b815481526020019060010190808311613c29575b50505050508152602001600b8201805480602002602001604051908101604052809291908181526020018280548015613c9557602002820191906000526020600020905b815481526020019060010190808311613c81575b50505050508152602001600c8201548152602001600d8201805480602002602001604051908101604052809291908181526020018280548015613cf757602002820191906000526020600020905b815481526020019060010190808311613ce3575b50505050508152505090508173ffffffffffffffffffffffffffffffffffffffff16816020015173ffffffffffffffffffffffffffffffffffffffff1614613d3e57600080fd5b505050565b600060026000848152602001908152602001600020604051806101c0016040529081600082015481526020016001820160009054906101000a900473ffffffffffffffffffffffffffffffffffffffff1673ffffffffffffffffffffffffffffffffffffffff1673ffffffffffffffffffffffffffffffffffffffff168152602001600282018054613dd490615769565b80601f0160208091040260200160405190810160405280929190818152602001828054613e0090615769565b8015613e4d5780601f10613e2257610100808354040283529160200191613e4d565b820191906000526020600020905b815481529060010190602001808311613e3057829003601f168201915b505050505081526020016003820160009054906101000a900460ff161515151581526020016004820154815260200160058201548152602001600682015481526020016007820154815260200160088201805480602002602001604051908101604052809291908181526020018280548015613f1e57602002820191906000526020600020905b8160009054906101000a900473ffffffffffffffffffffffffffffffffffffffff1673ffffffffffffffffffffffffffffffffffffffff1681526020019060010190808311613ed4575b5050505050815260200160098201805480602002602001604051908101604052809291908181526020018280548015613f7657602002820191906000526020600020905b815481526020019060010190808311613f62575b50505050508152602001600a8201805480602002602001604051908101604052809291908181526020018280548015613fce57602002820191906000526020600020905b815481526020019060010190808311613fba575b50505050508152602001600b820180548060200260200160405190810160405280929190818152602001828054801561402657602002820191906000526020600020905b815481526020019060010190808311614012575b50505050508152602001600c8201548152602001600d820180548060200260200160405190810160405280929190818152602001828054801561408857602002820191906000526020600020905b815481526020019060010190808311614074575b5050505050815250509050818160800151146140a357600080fd5b505050565b6000805b60026000868152602001908152602001600020600901805490508110156141b5578373ffffffffffffffffffffffffffffffffffffffff16600560006002600089815260200190815260200160002060090184815481106141105761410f615628565b5b9060005260206000200154815260200190815260200160002060010160009054906101000a900473ffffffffffffffffffffffffffffffffffffffff1673ffffffffffffffffffffffffffffffffffffffff16036141a2576002600086815260200190815260200160002060090181815481106141905761418f615628565b5b906000526020600020015491506141b5565b80806141ad90615686565b9150506140ac565b5060006005600083815260200190815260200160002060405180610100016040529081600082015481526020016001820160009054906101000a900473ffffffffffffffffffffffffffffffffffffffff1673ffffffffffffffffffffffffffffffffffffffff1673ffffffffffffffffffffffffffffffffffffffff1681526020016002820160009054906101000a900473ffffffffffffffffffffffffffffffffffffffff1673ffffffffffffffffffffffffffffffffffffffff1673ffffffffffffffffffffffffffffffffffffffff168152602001600382015481526020016004820160009054906101000a900460ff16151515158152602001600582015481526020016006820160009054906101000a900460ff16151515158152602001600782015481525050905060008160a001519050600115158260800151151514614337576040517f08c379a000000000000000000000000000000000000000000000000000000000815260040161432e90615b70565b60405180910390fd5b600115158260c00151151514614382576040517f08c379a000000000000000000000000000000000000000000000000000000000815260040161437990615d8e565b60405180910390fd5b6000600960009054906101000a900473ffffffffffffffffffffffffffffffffffffffff16905060008173ffffffffffffffffffffffffffffffffffffffff16630770a05e89888a876040518563ffffffff1660e01b81526004016143ea9493929190615dae565b6020604051808303816000875af1158015614409573d6000803e3d6000fd5b505050506040513d601f19601f8201168201806040525081019061442d9190615c8d565b905060026000898152602001908152602001600020600b018190806001815401808255809150506001900390600052602060002001600090919091909150556000600260008a8152602001908152602001600020600b018054806020026020016040519081016040528092919081815260200182805480156144ce57602002820191906000526020600020905b8154815260200190600101908083116144ba575b5050505050905060008373ffffffffffffffffffffffffffffffffffffffff16635d56f793836040518263ffffffff1660e01b81526004016145109190615cf1565b602060405180830381865afa15801561452d573d6000803e3d6000fd5b505050506040513d601f19601f820116820180604052508101906145519190615c8d565b905080600260008c8152602001908152602001600020600701819055506000600260008c815260200190815260200160002060010160009054906101000a900473ffffffffffffffffffffffffffffffffffffffff16905060008060008373ffffffffffffffffffffffffffffffffffffffff1673ffffffffffffffffffffffffffffffffffffffff16815260200190815260200160002060050180548060200260200160405190810160405280929190818152602001828054801561463657602002820191906000526020600020905b815481526020019060010190808311614622575b5050505050905060008060005b83518110156146e55760006002600086848151811061466557614664615628565b5b6020026020010151815260200190815260200160002060070154146146d2576001836146919190615a84565b9250600260008583815181106146aa576146a9615628565b5b6020026020010151815260200190815260200160002060070154826146cf9190615a84565b91505b80806146dd90615686565b915050614643565b5081816146f29190615e22565b6000808673ffffffffffffffffffffffffffffffffffffffff1673ffffffffffffffffffffffffffffffffffffffff168152602001908152602001600020600101819055505050505050505050505050505050565b6000600b60009054906101000a900473ffffffffffffffffffffffffffffffffffffffff16905060008173ffffffffffffffffffffffffffffffffffffffff1663727e455d846040518263ffffffff1660e01b81526004016147a99190615e53565b602060405180830381865afa1580156147c6573d6000803e3d6000fd5b505050506040513d601f19601f820116820180604052508101906147ea9190615c8d565b90508381101561482f576040517f08c379a000000000000000000000000000000000000000000000000000000000815260040161482690615eba565b60405180910390fd5b50505050565b6000805b6007805490508110156148d3578273ffffffffffffffffffffffffffffffffffffffff166007828154811061487157614870615628565b5b9060005260206000200160009054906101000a900473ffffffffffffffffffffffffffffffffffffffff1673ffffffffffffffffffffffffffffffffffffffff16036148c057600191506148d3565b80806148cb90615686565b915050614839565b5060011515811515146148e557600080fd5b5050565b828054828255906000526020600020908101928215614925579160200282015b82811115614924578251825591602001919060010190614909565b5b50905061493291906149c0565b5090565b8280548282559060005260206000209081019282156149af579160200282015b828111156149ae5782518260006101000a81548173ffffffffffffffffffffffffffffffffffffffff021916908373ffffffffffffffffffffffffffffffffffffffff16021790555091602001919060010190614956565b5b5090506149bc91906149c0565b5090565b5b808211156149d95760008160009055506001016149c1565b5090565b6000604051905090565b600080fd5b600080fd5b600073ffffffffffffffffffffffffffffffffffffffff82169050919050565b6000614a1c826149f1565b9050919050565b614a2c81614a11565b8114614a3757600080fd5b50565b600081359050614a4981614a23565b92915050565b600060208284031215614a6557614a646149e7565b5b6000614a7384828501614a3a565b91505092915050565b600081519050919050565b600082825260208201905092915050565b6000819050602082019050919050565b600081519050919050565b600082825260208201905092915050565b60005b83811015614ae2578082015181840152602081019050614ac7565b60008484015250505050565b6000601f19601f8301169050919050565b6000614b0a82614aa8565b614b148185614ab3565b9350614b24818560208601614ac4565b614b2d81614aee565b840191505092915050565b6000614b448383614aff565b905092915050565b6000602082019050919050565b6000614b6482614a7c565b614b6e8185614a87565b935083602082028501614b8085614a98565b8060005b85811015614bbc5784840389528151614b9d8582614b38565b9450614ba883614b4c565b925060208a01995050600181019050614b84565b50829750879550505050505092915050565b600081519050919050565b600082825260208201905092915050565b6000819050602082019050919050565b6000819050919050565b614c0d81614bfa565b82525050565b6000614c1f8383614c04565b60208301905092915050565b6000602082019050919050565b6000614c4382614bce565b614c4d8185614bd9565b9350614c5883614bea565b8060005b83811015614c89578151614c708882614c13565b9750614c7b83614c2b565b925050600181019050614c5c565b5085935050505092915050565b600081519050919050565b600082825260208201905092915050565b6000819050602082019050919050565b60008115159050919050565b614cd781614cc2565b82525050565b6000614ce98383614cce565b60208301905092915050565b6000602082019050919050565b6000614d0d82614c96565b614d178185614ca1565b9350614d2283614cb2565b8060005b83811015614d53578151614d3a8882614cdd565b9750614d4583614cf5565b925050600181019050614d26565b5085935050505092915050565b600060a0820190508181036000830152614d7a8188614b59565b90508181036020830152614d8e8187614c38565b90508181036040830152614da28186614d02565b90508181036060830152614db68185614c38565b90508181036080830152614dca8184614c38565b90509695505050505050565b600080fd5b600080fd5b7f4e487b7100000000000000000000000000000000000000000000000000000000600052604160045260246000fd5b614e1882614aee565b810181811067ffffffffffffffff82111715614e3757614e36614de0565b5b80604052505050565b6000614e4a6149dd565b9050614e568282614e0f565b919050565b600067ffffffffffffffff821115614e7657614e75614de0565b5b614e7f82614aee565b9050602081019050919050565b82818337600083830152505050565b6000614eae614ea984614e5b565b614e40565b905082815260208101848484011115614eca57614ec9614ddb565b5b614ed5848285614e8c565b509392505050565b600082601f830112614ef257614ef1614dd6565b5b8135614f02848260208601614e9b565b91505092915050565b600060208284031215614f2157614f206149e7565b5b600082013567ffffffffffffffff811115614f3f57614f3e6149ec565b5b614f4b84828501614edd565b91505092915050565b614f5d81614bfa565b8114614f6857600080fd5b50565b600081359050614f7a81614f54565b92915050565b600060208284031215614f9657614f956149e7565b5b6000614fa484828501614f6b565b91505092915050565b6000614fb8826149f1565b9050919050565b614fc881614fad565b8114614fd357600080fd5b50565b600081359050614fe581614fbf565b92915050565b60008060408385031215615002576150016149e7565b5b600083013567ffffffffffffffff8111156150205761501f6149ec565b5b61502c85828601614edd565b925050602061503d85828601614fd6565b9150509250929050565b600082825260208201905092915050565b600061506382614aa8565b61506d8185615047565b935061507d818560208601614ac4565b61508681614aee565b840191505092915050565b61509a81614bfa565b82525050565b600060608201905081810360008301526150ba8186615058565b90506150c96020830185615091565b81810360408301526150db8184614c38565b9050949350505050565b600080604083850312156150fc576150fb6149e7565b5b600061510a85828601614f6b565b925050602061511b85828601614f6b565b9150509250929050565b61512e81614a11565b82525050565b61513d81614cc2565b82525050565b600060c0820190506151586000830189615125565b818103602083015261516a8188615058565b90506151796040830187615134565b818103606083015261518b8186614c38565b9050818103608083015261519f8185614c38565b905081810360a08301526151b38184614c38565b9050979650505050505050565b600081519050919050565b600082825260208201905092915050565b6000819050602082019050919050565b6151f581614a11565b82525050565b600061520783836151ec565b60208301905092915050565b6000602082019050919050565b600061522b826151c0565b61523581856151cb565b9350615240836151dc565b8060005b8381101561527157815161525888826151fb565b975061526383615213565b925050600181019050615244565b5085935050505092915050565b600060608201905081810360008301526152988186615220565b905081810360208301526152ac8185614b59565b905081810360408301526152c08184614c38565b9050949350505050565b6000806000606084860312156152e3576152e26149e7565b5b60006152f186828701614f6b565b935050602061530286828701614f6b565b925050604061531386828701614f6b565b9150509250925092565b600060a08201905081810360008301526153378188615220565b9050818103602083015261534b8187614b59565b9050818103604083015261535f8186614d02565b905081810360608301526153738185614c38565b905081810360808301526153878184614c38565b90509695505050505050565b600067ffffffffffffffff8211156153ae576153ad614de0565b5b602082029050602081019050919050565b600080fd5b60006153d76153d284615393565b614e40565b905080838252602082019050602084028301858111156153fa576153f96153bf565b5b835b8181101561544157803567ffffffffffffffff81111561541f5761541e614dd6565b5b80860161542c8982614edd565b855260208501945050506020810190506153fc565b5050509392505050565b600082601f8301126154605761545f614dd6565b5b81356154708482602086016153c4565b91505092915050565b600067ffffffffffffffff82111561549457615493614de0565b5b602082029050602081019050919050565b60006154b86154b384615479565b614e40565b905080838252602082019050602084028301858111156154db576154da6153bf565b5b835b8181101561550457806154f08882614f6b565b8452602084019350506020810190506154dd565b5050509392505050565b600082601f83011261552357615522614dd6565b5b81356155338482602086016154a5565b91505092915050565b600080600060608486031215615555576155546149e7565b5b600061556386828701614f6b565b935050602084013567ffffffffffffffff811115615584576155836149ec565b5b6155908682870161544b565b925050604084013567ffffffffffffffff8111156155b1576155b06149ec565b5b6155bd8682870161550e565b9150509250925092565b600060a0820190506155dc6000830188615125565b81810360208301526155ee8187614c38565b90506155fd6040830186615134565b61560a6060830185615125565b818103608083015261561c8184614b59565b90509695505050505050565b7f4e487b7100000000000000000000000000000000000000000000000000000000600052603260045260246000fd5b7f4e487b7100000000000000000000000000000000000000000000000000000000600052601160045260246000fd5b600061569182614bfa565b91507fffffffffffffffffffffffffffffffffffffffffffffffffffffffffffffffff82036156c3576156c2615657565b5b600182019050919050565b7f466f6f6442616e6b206e6f742070726573656e74000000000000000000000000600082015250565b6000615704601483615047565b915061570f826156ce565b602082019050919050565b60006020820190508181036000830152615733816156f7565b9050919050565b7f4e487b7100000000000000000000000000000000000000000000000000000000600052602260045260246000fd5b6000600282049050600182168061578157607f821691505b6020821081036157945761579361573a565b5b50919050565b60008190508160005260206000209050919050565b60006020601f8301049050919050565b600082821b905092915050565b6000600883026157fc7fffffffffffffffffffffffffffffffffffffffffffffffffffffffffffffffff826157bf565b61580686836157bf565b95508019841693508086168417925050509392505050565b6000819050919050565b600061584361583e61583984614bfa565b61581e565b614bfa565b9050919050565b6000819050919050565b61585d83615828565b6158716158698261584a565b8484546157cc565b825550505050565b600090565b615886615879565b615891818484615854565b505050565b5b818110156158b5576158aa60008261587e565b600181019050615897565b5050565b601f8211156158fa576158cb8161579a565b6158d4846157af565b810160208510156158e3578190505b6158f76158ef856157af565b830182615896565b50505b505050565b600082821c905092915050565b600061591d600019846008026158ff565b1980831691505092915050565b6000615936838361590c565b9150826002028217905092915050565b61594f82614aa8565b67ffffffffffffffff81111561596857615967614de0565b5b6159728254615769565b61597d8282856158b9565b600060209050601f8311600181146159b0576000841561599e578287015190505b6159a8858261592a565b865550615a10565b601f1984166159be8661579a565b60005b828110156159e6578489015182556001820191506020850194506020810190506159c1565b86831015615a0357848901516159ff601f89168261590c565b8355505b6001600288020188555050505b505050505050565b7f4e6f7420417574686f7269736564000000000000000000000000000000000000600082015250565b6000615a4e600e83615047565b9150615a5982615a18565b602082019050919050565b60006020820190508181036000830152615a7d81615a41565b9050919050565b6000615a8f82614bfa565b9150615a9a83614bfa565b9250828201905080821115615ab257615ab1615657565b5b92915050565b7f4e6f7420612056616c696420446f6e6f72000000000000000000000000000000600082015250565b6000615aee601183615047565b9150615af982615ab8565b602082019050919050565b60006020820190508181036000830152615b1d81615ae1565b9050919050565b7f446f6e6f72206861736e27742066756e64656400000000000000000000000000600082015250565b6000615b5a601383615047565b9150615b6582615b24565b602082019050919050565b60006020820190508181036000830152615b8981615b4d565b9050919050565b7f416c726561647920766f74656400000000000000000000000000000000000000600082015250565b6000615bc6600d83615047565b9150615bd182615b90565b602082019050919050565b60006020820190508181036000830152615bf581615bb9565b9050919050565b6000606082019050615c116000830186615091565b615c1e6020830185615091565b615c2b6040830184615091565b949350505050565b6000608082019050615c486000830187615125565b615c556020830186615091565b615c626040830185615091565b615c6f6060830184615091565b95945050505050565b600081519050615c8781614f54565b92915050565b600060208284031215615ca357615ca26149e7565b5b6000615cb184828501615c78565b91505092915050565b60006040820190508181036000830152615cd48185614b59565b90508181036020830152615ce88184614c38565b90509392505050565b60006020820190508181036000830152615d0b8184614c38565b905092915050565b7f4e487b7100000000000000000000000000000000000000000000000000000000600052600160045260246000fd5b7f446f6e6f72206861736e277420766f7465640000000000000000000000000000600082015250565b6000615d78601283615047565b9150615d8382615d42565b602082019050919050565b60006020820190508181036000830152615da781615d6b565b9050919050565b6000608082019050615dc36000830187615091565b615dd06020830186615091565b615ddd6040830185615125565b615dea6060830184615091565b95945050505050565b7f4e487b7100000000000000000000000000000000000000000000000000000000600052601260045260246000fd5b6000615e2d82614bfa565b9150615e3883614bfa565b925082615e4857615e47615df3565b5b828204905092915050565b6000602082019050615e686000830184615125565b92915050565b7f596f752068617665206c657373206e6f3a6f6620746f6b656e73000000000000600082015250565b6000615ea4601a83615047565b9150615eaf82615e6e565b602082019050919050565b60006020820190508181036000830152615ed381615e97565b905091905056fea2646970667358221220fd57ac8a62527b942b481ccbfb914bba7086746fb488d210dfd0036711bd6f9764736f6c63430008110033",
  "immutableReferences": {},
  "source": "// SPDX-License-Identifier: GPL-3.0\npragma solidity >=0.7.0 <0.9.0;\nimport './voting.sol';\nimport './ratingC.sol';\nimport './planC.sol';\nimport './fb_token.sol';\n\ncontract FoodBank {\n\n    struct FBank {    \n        string name;    // Foodbank name\n        uint rating;    // overall rating of the fb\n        address payable acc_address;  // account address of the foodbank employee\n        uint total_money_raised; // sum of all funds raised thus far\n        bool active; // raising any funds currently or not.\n        uint[] history;  // Foodbank past history including active dispensement\n    }\n\n    mapping(address => FBank) foodbanks;\n    address[] foodbank_addresses;\n\n    struct FBankHistory{\n        uint id;\n        address payable fb_addr;\n        string name;   // eg: Coronovirus fund\n        bool active;\n        uint curr_step;  // { 0: 'nothing', 1: 'fb has started fund collection'}\n        uint total_steps;\n        uint money_raised;\n        uint rating;\n        address[] donors;  // who are all the donors donated to this particluar dispensement\n        uint[] donor_acts;\n        uint[] plans;  // list of all plans given by foodbank\n        uint[] ratings;\n        uint most_voted_plan_id;\n        uint[] votes;\n    }\n    mapping(uint => FBankHistory) fbankshistories;\n    uint latest_fb_hist_id;\n\n    struct DonorActivity{\n      uint id;\n      address donor_acc_addr;\n      address food_bank_addr;\n      uint fb_hist_id;\n      bool funded;\n      uint funded_amount;\n      bool voted;\n      uint voted_for_plan_id;\n    }\n    uint latest_donor_activity_id;\n    mapping(uint => DonorActivity) donor_activities;\n\n    struct Donor{\n        address acc_address;\n        string name;\n        uint total_amount_funded;\n        uint[] activity;\n    }\n    mapping(address => Donor) donors;\n    address[] donor_addresses;\n\n    address VotingContract;\n    address RatingContract;\n    address PlanContract;\n    address FbTokenContract;\n\n    address chairperson;\n    \n\n    constructor () {\n        latest_fb_hist_id = 0;\n        latest_donor_activity_id = 0;\n        chairperson = msg.sender;\n    }\n\n    function _onlyCDeployer() private view {\n      require(msg.sender == chairperson);\n    }\n\n    modifier onlyCDeployer() \n    {\n        _onlyCDeployer();\n        _;\n    }\n\n    modifier validForFbCreation(address acc_addr) \n    {\n        bool not_present = true;\n        for (uint i = 0; i < foodbank_addresses.length; i++) {\n            if (foodbank_addresses[i] == acc_addr) {\n                not_present = false;\n                break;\n            }\n        }\n        require(not_present == true);\n       _;\n    }\n\n    modifier onlyChair(address payable acc_addr, address payable fb_acc_addr){\n        require(acc_addr == fb_acc_addr, \"Not Authorised\");\n        _;\n    }\n\n    function _validFBHistStep(uint hist_id, uint req_step) private view {\n       FBankHistory memory fb_hist = fbankshistories[hist_id];\n       require(fb_hist.curr_step == req_step);\n    }\n\n    modifier validFBHistStep(uint hist_id, uint req_step){\n        _validFBHistStep(hist_id, req_step);\n       _;\n    }\n\n    function _onlyChairFBHist(uint hist_id, address user_addr) private view {\n       FBankHistory memory fb_hist = fbankshistories[hist_id];\n       require(fb_hist.fb_addr == user_addr);\n    }\n\n    modifier onlyChairFBHist(uint hist_id, address user_addr){\n       _onlyChairFBHist(hist_id, user_addr);\n       _;\n    }\n\n    function _validDonor(address donor_address) private view{\n        bool present = false;\n\n        for(uint i = 0; i < donor_addresses.length; i++) {\n           if(donor_addresses[i] == donor_address){\n             present  = true;\n             break;\n           }\n        }\n        require(present == true);\n    }\n\n    function _validateTokens(uint tokens, address addr) view private{\n       InterfaceFBToken token_interface = InterfaceFBToken(FbTokenContract);\n       uint no_of_tokens = token_interface.fetch_balance(addr);\n       require(no_of_tokens >= tokens, \"You have less no:of tokens\");\n    }\n\n    modifier validDonor(address donor_address){\n        _validDonor(donor_address);\n        _;\n    }\n\n    // Donor shouldn't be already present\n    modifier vaidForDonorCreation(address acc_addr) \n    {\n        bool not_present = true;\n        for (uint i = 0; i < donor_addresses.length; i++) {\n            if (donor_addresses[i] == acc_addr) {\n                not_present = false;\n                break;\n            }\n        }\n        require(not_present == true);\n       _;\n    }\n\n    modifier onlyValidDonor(uint hist_id, address user_address){\n        bool present = false;\n\n        for(uint i = 0; i < fbankshistories[hist_id].donors.length; i++){\n            if(fbankshistories[hist_id].donors[i] == user_address){\n                present = true;\n                break;\n            }\n        }\n        require(present == true, \"Not a Valid Donor\");\n        _;\n    }\n\n    modifier validPlanId(uint plan_id, uint hist_id){\n        bool present = false;\n\n        for(uint i = 0; i < fbankshistories[hist_id].plans.length; i++){\n            if(fbankshistories[hist_id].plans[i] == plan_id){\n                present = true;\n                break;\n            }\n        }\n        require(present == true);\n        _;\n    }\n\n    modifier validateTokens(uint tokens, address addr){\n      _validateTokens(tokens, addr);\n       _; \n    }\n\n    function setVotingContractAddr(address voting_addr) onlyCDeployer() external{\n        VotingContract = voting_addr;\n    }\n\n    function setRatingContractAddr(address rating_addr) onlyCDeployer() external{\n        RatingContract = rating_addr;\n    }\n\n    function setPlanContractAddr(address plan_addr) onlyCDeployer() external{\n        PlanContract = plan_addr;\n    }\n\n    function setFbTokenContractAddr(address fb_token_addr) onlyCDeployer() external{\n        FbTokenContract = fb_token_addr;\n    }\n\n    function getListOfFBS() public view returns(address[] memory, string[] memory, bool[] memory, uint[] memory, uint[] memory){\n        uint no_of_fbs = foodbank_addresses.length;\n        address[] memory fb_addresses = new address[](no_of_fbs);\n        string[] memory fb_names = new string[](no_of_fbs);\n        bool[] memory fb_activity = new bool[](no_of_fbs);\n        uint[] memory fb_cumm_funds_raised = new uint[](no_of_fbs);\n        uint[] memory fb_rating = new uint[](no_of_fbs);\n      \n\n        for(uint i = 0; i < no_of_fbs; i++) {\n            address fb_addr = foodbank_addresses[i];\n            fb_addresses[i] = fb_addr;\n\n            FBank memory fb = foodbanks[fb_addr];\n            fb_names[i] =  fb.name;\n            fb_activity[i] = fb.active;\n            fb_cumm_funds_raised[i] = fb.total_money_raised;\n            fb_rating[i] = fb.rating;\n        }\n        return (fb_addresses, fb_names, fb_activity, fb_cumm_funds_raised, fb_rating);\n    }\n\n    function createFB(string memory name) public validForFbCreation(msg.sender){\n       address payable acc_addr = payable(msg.sender);\n\n       foodbanks[acc_addr].name = name;\n       foodbanks[acc_addr].acc_address = acc_addr;\n       foodbanks[acc_addr].active = false;\n       foodbanks[acc_addr].total_money_raised = 0;\n       foodbanks[acc_addr].history = new uint[](0);\n       foodbank_addresses.push(acc_addr);\n    }\n    \n    function createFBHistory(string memory name, address payable fb_acc_addr) onlyChair(payable(msg.sender), fb_acc_addr) public{\n       uint[] memory empty_arr = new uint[](0);\n\n        FBankHistory memory new_fb_hist = FBankHistory({ id: latest_fb_hist_id + 1, name: name, fb_addr: fb_acc_addr, active: false, curr_step: 0, total_steps: 5, money_raised: 0, rating: 0,\n            donors: new address[](0), plans: empty_arr, votes: empty_arr, donor_acts: empty_arr, most_voted_plan_id: 0, ratings: empty_arr});\n        \n        latest_fb_hist_id = latest_fb_hist_id + 1;\n        fbankshistories[latest_fb_hist_id] = new_fb_hist;\n\n        foodbanks[fb_acc_addr].history.push(latest_fb_hist_id);\n    } \n\n    function getFBHistory(address acc_addr) public view returns(string[] memory, uint[] memory, bool[] memory, uint[] memory, uint[] memory){\n       uint no_of_fbs = foodbank_addresses.length;\n       bool present = false;\n      \n       for(uint i = 0; i < no_of_fbs; i++) {\n            address fb_addr = foodbank_addresses[i];\n            if(fb_addr == acc_addr){\n                present = true;\n                break;\n            }\n        }\n        require(present == true, \"FoodBank not present\");\n\n\n        uint[] memory fb_history = foodbanks[acc_addr].history;\n\n        uint history_len = fb_history.length;\n        string[] memory names = new string[](history_len);\n        uint[] memory ratings = new uint[](history_len);\n        bool[] memory activity = new bool[](history_len);\n        uint[] memory money_raised = new uint[](history_len);\n        uint[] memory primary_keys = new uint[](history_len);\n\n        for(uint i = 0; i < history_len; i++) {\n            uint hist_id = fb_history[i];\n            // FBankHistory memory fbh = fb_history[i];\n            names[i] =  fbankshistories[hist_id].name;\n            ratings[i] = fbankshistories[hist_id].rating;\n            activity[i] = fbankshistories[hist_id].active;\n            money_raised[i] = fbankshistories[hist_id].money_raised;\n            primary_keys[i] = fbankshistories[hist_id].id;\n        }\n        return(names, ratings, activity, money_raised, primary_keys);\n    }\n\n    function viewFBHistory(uint fb_hist_id) public view returns(address, string memory, bool, uint[] memory, uint[] memory, uint[] memory){\n        FBankHistory memory fb_hist = fbankshistories[fb_hist_id];\n\n        address fb_addr = fb_hist.fb_addr;\n        string memory name = fb_hist.name;\n        bool active = fb_hist.active;\n \n        uint[] memory data = new uint[](5); // {curr_step, total_steps, money_raised, rating, most_voted_plan_id}\n        data[0] = fb_hist.curr_step;\n        data[1] = fb_hist.total_steps;\n        data[2] = fb_hist.money_raised;\n        data[3] = fb_hist.rating;\n        data[4] = fb_hist.most_voted_plan_id;\n\n        uint[] memory donor_acts_ids = fb_hist.donor_acts;\n        uint[] memory plan_ids = fb_hist.plans;\n\n        return(fb_addr, name, active, data, donor_acts_ids, plan_ids);\n    }\n\n    function donate_funds(uint hist_id) public validFBHistStep(hist_id, 1) validDonor(msg.sender) payable{\n        address donor_addr = msg.sender; \n        uint donation_amount = msg.value;\n\n        // updating donation amount in fundbank and fundbank hist\n        fbankshistories[hist_id].money_raised = fbankshistories[hist_id].money_raised + donation_amount;\n        address foodbank_addr = fbankshistories[hist_id].fb_addr;\n        foodbanks[foodbank_addr].total_money_raised = foodbanks[foodbank_addr].total_money_raised + donation_amount;       \n       \n        // updating in donor and donor activity\n        donors[donor_addr].total_amount_funded = donors[donor_addr].total_amount_funded + donation_amount;\n        DonorActivity memory don_act = DonorActivity({ id: latest_donor_activity_id + 1, food_bank_addr: foodbank_addr, fb_hist_id: hist_id, funded: true,\n                                                       funded_amount: donation_amount, voted: false,  voted_for_plan_id: 0, donor_acc_addr: donor_addr});\n        latest_donor_activity_id = latest_donor_activity_id + 1;\n        donors[donor_addr].activity.push(latest_donor_activity_id);\n        donor_activities[latest_donor_activity_id] = don_act;\n\n        // updating foodbank_hist\n        fbankshistories[hist_id].donor_acts.push(latest_donor_activity_id);\n        fbankshistories[hist_id].donors.push(donor_addr);\n    }\n\n    function withdraw_funds(uint hist_id) public onlyChairFBHist(hist_id, msg.sender) validFBHistStep(hist_id, 3){\n        address payable fb_addr = fbankshistories[hist_id].fb_addr;\n        uint amount_collected = fbankshistories[hist_id].money_raised;\n        fb_addr.transfer(amount_collected); \n        fbankshistories[hist_id].curr_step = 4;\n    }\n    \n    function createDonor(string memory name) public vaidForDonorCreation(msg.sender){\n       address payable acc_addr = payable(msg.sender);\n       donors[acc_addr].name = name;\n       donors[acc_addr].acc_address = acc_addr;\n       donors[acc_addr].total_amount_funded = 0;\n       donors[acc_addr].activity = new uint[](0);\n       donor_addresses.push(acc_addr);\n    }\n\n    function getListOfDonors() public view returns(address[] memory, string[] memory, uint[] memory){\n        uint no_of_donors = donor_addresses.length;\n        string[] memory donor_names = new string[](no_of_donors);\n        uint[] memory donor_cumm_funds_raised = new uint[](no_of_donors);\n      \n\n        for(uint i = 0; i < no_of_donors; i++) {\n            address donor_addr = donor_addresses[i];\n\n            Donor memory don = donors[donor_addr];\n            donor_names[i] =  don.name;\n            donor_cumm_funds_raised[i] = don.total_amount_funded;\n        }\n        return (donor_addresses, donor_names, donor_cumm_funds_raised);\n    }\n\n    function viewDonorDetails(address donor_addr) public view returns(string memory, uint, uint[] memory){\n        Donor memory donor = donors[donor_addr];\n\n        string memory name = donor.name;\n        uint total_amount_funded = donor.total_amount_funded;\n        uint[] memory activity = donor.activity;\n\n        return (name, total_amount_funded, activity);\n    }\n\n    function getDonorActivityDetails(uint donor_activity_id) public view returns(address, uint[] memory, bool, address, string[] memory){\n        // DonorActivity memory don_act = donor_activities[donor_activity_id];\n        address food_bank_addr = donor_activities[donor_activity_id].food_bank_addr;\n\n        uint[] memory data = new uint[](3); // {fb_hist_id, funded_amount, voted_for_plan_id}\n        bool voted = donor_activities[donor_activity_id].voted;\n        address donor_addr = donor_activities[donor_activity_id].donor_acc_addr;\n        // string memory donor_name = donors[donor_addr].name;\n        string[] memory names = new string[](3);\n\n        data[0] = donor_activities[donor_activity_id].fb_hist_id;\n        data[1] = donor_activities[donor_activity_id].funded_amount;\n        data[2] = donor_activities[donor_activity_id].voted_for_plan_id;\n\n        names[0] = donors[donor_addr].name;\n        names[1] = fbankshistories[data[0]].name;\n        names[2] = foodbanks[food_bank_addr].name;\n\n        return(food_bank_addr, data, voted, donor_addr, names);\n    }\n\n    function updateFbHistStateToStartFundCollection(uint hist_id) public onlyChairFBHist(hist_id, msg.sender) validFBHistStep(hist_id, 0){\n      fbankshistories[hist_id].curr_step = 1;\n      fbankshistories[hist_id].active = true;\n      foodbanks[fbankshistories[hist_id].fb_addr].active = true;\n    }\n\n    function createFbHistPlan(uint hist_id, string[] memory item_names, uint[] memory item_amounts) public onlyChairFBHist(hist_id, msg.sender) validFBHistStep(hist_id, 1){\n      InterfacePlan plan_interface = InterfacePlan(PlanContract);\n      uint latest_plan_id = plan_interface.createPlanAndPlanItems(item_names, item_amounts); \n\n      // updating fbank history\n      fbankshistories[hist_id].plans.push(latest_plan_id);    \n    }\n\n    function startVoting(uint hist_id) public onlyChairFBHist(hist_id, msg.sender) validFBHistStep(hist_id, 1){\n        fbankshistories[hist_id].curr_step = 2;\n    }\n\n    function registerVote(uint plan_id, uint hist_id, uint tokens) public validPlanId(plan_id, hist_id) validateTokens(tokens, msg.sender){\n       address user_addr = msg.sender;\n\n       uint donor_activity_id = 0;\n       for(uint i = 0; i < fbankshistories[hist_id].donor_acts.length; i++){\n            if(donor_activities[fbankshistories[hist_id].donor_acts[i]].donor_acc_addr == user_addr){\n               donor_activity_id = fbankshistories[hist_id].donor_acts[i];\n               break;\n            }\n       }\n\n       require(fbankshistories[hist_id].curr_step == 2);\n       require(donor_activity_id != 0, \"Donor hasn't funded\");\n       require(donor_activities[donor_activity_id].voted == false, \"Already voted\");\n\n       // updating donor_activity\n       donor_activities[donor_activity_id].voted = true;\n       donor_activities[donor_activity_id].voted_for_plan_id = plan_id;\n       // uint donated_amount = donor_activities[donor_activity_id].funded_amount;\n\n       // updating plan collected amount\n       InterfacePlan plan_interface = InterfacePlan(PlanContract);\n       plan_interface.updatePlanCollectedAmount(plan_id, donor_activities[donor_activity_id].funded_amount, tokens); \n\n       // creating a new vote and updating in fb_hist\n       InterfaceVoting voting_interface = InterfaceVoting(VotingContract);\n       uint latest_vote_id = voting_interface.createVote(user_addr, plan_id, donor_activities[donor_activity_id].funded_amount, tokens); \n       fbankshistories[hist_id].votes.push(latest_vote_id);\n\n        // deducting tokens\n        // if(tokens > 0){\n        //   InterfaceFBToken token_interface = InterfaceFBToken(FbTokenContract);\n        //   token_interface.deduct_tokens(tokens);\n        // }\n    }\n\n\n    function endVotingAndFetchMostVotedPlan(uint hist_id) public validFBHistStep(hist_id, 2) onlyChairFBHist(hist_id, msg.sender){\n        uint[] memory mem_plans =  fbankshistories[hist_id].plans;\n\n        InterfacePlan plan_interface = InterfacePlan(PlanContract);\n        uint max_voted_plan_id = plan_interface.fetchMostVotedPlan(mem_plans); \n\n        assert(max_voted_plan_id != 0); // Max Voted Plan doesn't exists\n\n        fbankshistories[hist_id].curr_step = 3;\n        fbankshistories[hist_id].most_voted_plan_id = max_voted_plan_id;\n    }\n \n    function submitBill(uint hist_id) public validFBHistStep(hist_id, 4) onlyChairFBHist(hist_id, msg.sender){\n        fbankshistories[hist_id].curr_step = 5;\n        fbankshistories[hist_id].active = false;\n        // TODO FE can send uploaded bill url and we save in fb_hist\n\n         // updating fb rating\n        address fb_addr = fbankshistories[hist_id].fb_addr;\n        uint[] memory history = foodbanks[fb_addr].history;\n        bool active_present = false;\n\n        for(uint i = 0; i < history.length; i++){\n          if(fbankshistories[history[i]].active == true){\n           active_present = true;\n           break;\n          }\n        }\n        foodbanks[fb_addr].active = active_present;\n    }\n\n    function submitRatingUtil(uint hist_id, address user_addr, uint rating) private{\n        // uint[] memory donor_acts = fbankshistories[hist_id].donor_acts;\n\n        uint donor_activity_id = 0;\n        for(uint i = 0; i < fbankshistories[hist_id].donor_acts.length; i++){\n            if(donor_activities[fbankshistories[hist_id].donor_acts[i]].donor_acc_addr == user_addr){\n                donor_activity_id = fbankshistories[hist_id].donor_acts[i];\n                break;\n            }\n        }\n\n        DonorActivity memory donor_act = donor_activities[donor_activity_id];\n        uint donated_amount = donor_act.funded_amount;\n\n        require(donor_act.funded == true, \"Donor hasn't funded\");\n        require(donor_act.voted == true, \"Donor hasn't voted\");\n\n        InterfaceRating rating_interface = InterfaceRating(RatingContract);\n        uint latest_rating_id = rating_interface.createRating(hist_id, rating, user_addr, donated_amount);\n        fbankshistories[hist_id].ratings.push(latest_rating_id);\n\n        \n        // updating fb_hist rating\n        uint[] memory rating_ids = fbankshistories[hist_id].ratings;\n        uint rating_value = rating_interface.getCummulativerating(rating_ids);\n        fbankshistories[hist_id].rating = rating_value;\n\n\n        // updating fb rating\n        address fb_addr = fbankshistories[hist_id].fb_addr;\n        uint[] memory history = foodbanks[fb_addr].history;\n        uint count = 0;\n        uint cumm_rating = 0;\n\n        for(uint i = 0; i < history.length; i++){\n          if(fbankshistories[history[i]].rating != 0){\n            count = count + 1;\n            cumm_rating = cumm_rating + fbankshistories[history[i]].rating;\n          }\n        }\n        foodbanks[fb_addr].rating = cumm_rating / count;\n    }\n\n    function submitRating(uint hist_id, uint rating) public validFBHistStep(hist_id, 5) onlyValidDonor(hist_id, msg.sender){\n        submitRatingUtil(hist_id, msg.sender, rating);\n    }\n}",
  "sourcePath": "/Users/vamsi/Documents/UB/BlockChain/phase_2_submission/foodbank/contracts/foodBank.sol",
  "compiler": {
    "name": "solc",
    "version": "0.8.17+commit.8df45f5f.Emscripten.clang"
  },
  "schemaVersion": "3.4.10",
  "updatedAt": "2022-12-07T23:11:12.689Z",
  "networkType": "ethereum",
  "devdoc": {
    "kind": "dev",
    "methods": {},
    "version": 1
  },
  "userdoc": {
    "kind": "user",
    "methods": {},
    "version": 1
  }
}