{
  "contractName": "Voting",
  "abi": [
    {
      "inputs": [],
      "stateMutability": "nonpayable",
      "type": "constructor"
    },
    {
      "inputs": [
        {
          "internalType": "address",
          "name": "user_addr",
          "type": "address"
        },
        {
          "internalType": "uint256",
          "name": "plan_id",
          "type": "uint256"
        },
        {
          "internalType": "uint256",
          "name": "amount_donated",
          "type": "uint256"
        },
        {
          "internalType": "uint256",
          "name": "tokens_donated",
          "type": "uint256"
        }
      ],
      "name": "createVote",
      "outputs": [
        {
          "internalType": "uint256",
          "name": "",
          "type": "uint256"
        }
      ],
      "stateMutability": "nonpayable",
      "type": "function"
    }
  ],
  "bytecode": "0x608060405234801561001057600080fd5b5060008081905550610293806100276000396000f3fe608060405234801561001057600080fd5b506004361061002b5760003560e01c8063bf58b29e14610030575b600080fd5b61004a60048036038101906100459190610169565b610060565b60405161005791906101df565b60405180910390f35b60006040518060a00160405280600160005461007c9190610229565b81526020018673ffffffffffffffffffffffffffffffffffffffff168152602001858152602001848152602001838152505060016000546100bd9190610229565b6000819055506000549050949350505050565b600080fd5b600073ffffffffffffffffffffffffffffffffffffffff82169050919050565b6000610100826100d5565b9050919050565b610110816100f5565b811461011b57600080fd5b50565b60008135905061012d81610107565b92915050565b6000819050919050565b61014681610133565b811461015157600080fd5b50565b6000813590506101638161013d565b92915050565b60008060008060808587031215610183576101826100d0565b5b60006101918782880161011e565b94505060206101a287828801610154565b93505060406101b387828801610154565b92505060606101c487828801610154565b91505092959194509250565b6101d981610133565b82525050565b60006020820190506101f460008301846101d0565b92915050565b7f4e487b7100000000000000000000000000000000000000000000000000000000600052601160045260246000fd5b600061023482610133565b915061023f83610133565b9250828201905080821115610257576102566101fa565b5b9291505056fea264697066735822122046a49fc8267414cd2e3403f35f87e7a4ca26436c27beff76f83b875c0ed4f1b064736f6c63430008110033",
  "immutableReferences": {},
  "source": "// SPDX-License-Identifier: GPL-3.0\npragma solidity >=0.7.0 <0.9.0;\n\n\ninterface InterfaceVoting{\n  function createVote(address user_addr, uint plan_id, uint amount_donated, uint tokens_donated) external returns(uint);\n}\n\ncontract Voting{\n\n    struct Vote{\n        uint id;\n        address donor_address;\n        uint voted_for_plan_id;\n        uint amount_donated;\n        uint tokens_donated;\n    }\n    uint latest_vote_id;\n    mapping(uint => Vote) votes;\n\n    constructor () {\n        latest_vote_id = 0;\n    }\n\n    function createVote(address user_addr, uint plan_id, uint amount_donated, uint tokens_donated) external returns(uint){\n        Vote({ id: latest_vote_id + 1, donor_address: user_addr, voted_for_plan_id: plan_id, amount_donated:  amount_donated, tokens_donated: tokens_donated});\n        latest_vote_id = latest_vote_id + 1;\n\n        return latest_vote_id;\n    }\n\n}",
  "sourcePath": "/Users/vamsi/Documents/UB/BlockChain/phase_2_submission/foodbank/contracts/voting.sol",
  "compiler": {
    "name": "solc",
    "version": "0.8.17+commit.8df45f5f.Emscripten.clang"
  },
  "schemaVersion": "3.4.10",
  "updatedAt": "2022-12-07T23:11:12.704Z",
  "networkType": "ethereum",
  "devdoc": {
    "kind": "dev",
    "methods": {},
    "version": 1
  },
  "userdoc": {
    "kind": "user",
    "methods": {},
    "version": 1
  }
}